{
  "_format": "hh-sol-artifact-1",
  "contractName": "LPFactory",
  "sourceName": "contracts/liquidity/uniswapv3/LPFactory.sol",
  "abi": [
    {
      "inputs": [
        {
          "internalType": "address",
          "name": "uniswapV3Factory_",
          "type": "address"
        },
        {
          "internalType": "address",
          "name": "positionManager_",
          "type": "address"
        },
        {
          "internalType": "address",
          "name": "lpLocker_",
          "type": "address"
        }
      ],
      "stateMutability": "nonpayable",
      "type": "constructor"
    },
    {
      "inputs": [],
      "name": "AccessControlBadConfirmation",
      "type": "error"
    },
    {
      "inputs": [
        {
          "internalType": "address",
          "name": "account",
          "type": "address"
        },
        {
          "internalType": "bytes32",
          "name": "neededRole",
          "type": "bytes32"
        }
      ],
      "name": "AccessControlUnauthorizedAccount",
      "type": "error"
    },
    {
      "inputs": [],
      "name": "Invalid",
      "type": "error"
    },
    {
      "inputs": [],
      "name": "NotFound",
      "type": "error"
    },
    {
      "inputs": [],
      "name": "Unauthorized",
      "type": "error"
    },
    {
      "anonymous": false,
      "inputs": [
        {
          "indexed": true,
          "internalType": "address",
          "name": "lockerAddress",
          "type": "address"
        },
        {
          "indexed": true,
          "internalType": "address",
          "name": "deployer",
          "type": "address"
        },
        {
          "indexed": true,
          "internalType": "address",
          "name": "token",
          "type": "address"
        },
        {
          "indexed": false,
          "internalType": "address",
          "name": "poolAddress",
          "type": "address"
        },
        {
          "indexed": false,
          "internalType": "uint256",
          "name": "tokenId",
          "type": "uint256"
        }
      ],
      "name": "LPCreated",
      "type": "event"
    },
    {
      "anonymous": false,
      "inputs": [
        {
          "indexed": true,
          "internalType": "bytes32",
          "name": "role",
          "type": "bytes32"
        },
        {
          "indexed": true,
          "internalType": "bytes32",
          "name": "previousAdminRole",
          "type": "bytes32"
        },
        {
          "indexed": true,
          "internalType": "bytes32",
          "name": "newAdminRole",
          "type": "bytes32"
        }
      ],
      "name": "RoleAdminChanged",
      "type": "event"
    },
    {
      "anonymous": false,
      "inputs": [
        {
          "indexed": true,
          "internalType": "bytes32",
          "name": "role",
          "type": "bytes32"
        },
        {
          "indexed": true,
          "internalType": "address",
          "name": "account",
          "type": "address"
        },
        {
          "indexed": true,
          "internalType": "address",
          "name": "sender",
          "type": "address"
        }
      ],
      "name": "RoleGranted",
      "type": "event"
    },
    {
      "anonymous": false,
      "inputs": [
        {
          "indexed": true,
          "internalType": "bytes32",
          "name": "role",
          "type": "bytes32"
        },
        {
          "indexed": true,
          "internalType": "address",
          "name": "account",
          "type": "address"
        },
        {
          "indexed": true,
          "internalType": "address",
          "name": "sender",
          "type": "address"
        }
      ],
      "name": "RoleRevoked",
      "type": "event"
    },
    {
      "inputs": [],
      "name": "DEFAULT_ADMIN_ROLE",
      "outputs": [
        {
          "internalType": "bytes32",
          "name": "",
          "type": "bytes32"
        }
      ],
      "stateMutability": "view",
      "type": "function"
    },
    {
      "inputs": [],
      "name": "DEPLOYER_ROLE",
      "outputs": [
        {
          "internalType": "bytes32",
          "name": "",
          "type": "bytes32"
        }
      ],
      "stateMutability": "view",
      "type": "function"
    },
    {
      "inputs": [
        {
          "internalType": "address",
          "name": "token",
          "type": "address"
        }
      ],
      "name": "claimRewards",
      "outputs": [],
      "stateMutability": "nonpayable",
      "type": "function"
    },
    {
      "inputs": [
        {
          "internalType": "contract IERC20",
          "name": "token",
          "type": "address"
        },
        {
          "internalType": "address",
          "name": "pairedToken",
          "type": "address"
        },
        {
          "internalType": "int24",
          "name": "tick",
          "type": "int24"
        },
        {
          "internalType": "uint24",
          "name": "fee",
          "type": "uint24"
        },
        {
          "internalType": "uint256",
          "name": "supplyPerPool",
          "type": "uint256"
        },
        {
          "internalType": "address",
          "name": "deployer",
          "type": "address"
        },
        {
          "internalType": "uint256",
          "name": "",
          "type": "uint256"
        }
      ],
      "name": "createLP",
      "outputs": [
        {
          "internalType": "uint256",
          "name": "positionId",
          "type": "uint256"
        }
      ],
      "stateMutability": "nonpayable",
      "type": "function"
    },
    {
      "inputs": [
        {
          "internalType": "address",
          "name": "",
          "type": "address"
        }
      ],
      "name": "deploymentInfoForToken",
      "outputs": [
        {
          "internalType": "address",
          "name": "token",
          "type": "address"
        },
        {
          "internalType": "uint256",
          "name": "positionId",
          "type": "uint256"
        },
        {
          "internalType": "address",
          "name": "locker",
          "type": "address"
        }
      ],
      "stateMutability": "view",
      "type": "function"
    },
    {
      "inputs": [
        {
          "internalType": "bytes32",
          "name": "role",
          "type": "bytes32"
        }
      ],
      "name": "getRoleAdmin",
      "outputs": [
        {
          "internalType": "bytes32",
          "name": "",
          "type": "bytes32"
        }
      ],
      "stateMutability": "view",
      "type": "function"
    },
    {
      "inputs": [
        {
          "internalType": "address",
          "name": "user",
          "type": "address"
        }
      ],
      "name": "getTokensDeployedByUser",
      "outputs": [
        {
          "components": [
            {
              "internalType": "address",
              "name": "token",
              "type": "address"
            },
            {
              "internalType": "uint256",
              "name": "positionId",
              "type": "uint256"
            },
            {
              "internalType": "address",
              "name": "locker",
              "type": "address"
            }
          ],
          "internalType": "struct LPFactory.DeploymentInfo[]",
          "name": "",
          "type": "tuple[]"
        }
      ],
      "stateMutability": "view",
      "type": "function"
    },
    {
      "inputs": [
        {
          "internalType": "bytes32",
          "name": "role",
          "type": "bytes32"
        },
        {
          "internalType": "address",
          "name": "account",
          "type": "address"
        }
      ],
      "name": "grantRole",
      "outputs": [],
      "stateMutability": "nonpayable",
      "type": "function"
    },
    {
      "inputs": [
        {
          "internalType": "bytes32",
          "name": "role",
          "type": "bytes32"
        },
        {
          "internalType": "address",
          "name": "account",
          "type": "address"
        }
      ],
      "name": "hasRole",
      "outputs": [
        {
          "internalType": "bool",
          "name": "",
          "type": "bool"
        }
      ],
      "stateMutability": "view",
      "type": "function"
    },
    {
      "inputs": [],
      "name": "liquidityLocker",
      "outputs": [
        {
          "internalType": "contract ILpLockerv2",
          "name": "",
          "type": "address"
        }
      ],
      "stateMutability": "view",
      "type": "function"
    },
    {
      "inputs": [],
      "name": "positionManager",
      "outputs": [
        {
          "internalType": "contract INonfungiblePositionManager",
          "name": "",
          "type": "address"
        }
      ],
      "stateMutability": "view",
      "type": "function"
    },
    {
      "inputs": [
        {
          "internalType": "bytes32",
          "name": "role",
          "type": "bytes32"
        },
        {
          "internalType": "address",
          "name": "callerConfirmation",
          "type": "address"
        }
      ],
      "name": "renounceRole",
      "outputs": [],
      "stateMutability": "nonpayable",
      "type": "function"
    },
    {
      "inputs": [
        {
          "internalType": "bytes32",
          "name": "role",
          "type": "bytes32"
        },
        {
          "internalType": "address",
          "name": "account",
          "type": "address"
        }
      ],
      "name": "revokeRole",
      "outputs": [],
      "stateMutability": "nonpayable",
      "type": "function"
    },
    {
      "inputs": [
        {
          "internalType": "bytes4",
          "name": "interfaceId",
          "type": "bytes4"
        }
      ],
      "name": "supportsInterface",
      "outputs": [
        {
          "internalType": "bool",
          "name": "",
          "type": "bool"
        }
      ],
      "stateMutability": "view",
      "type": "function"
    },
    {
      "inputs": [
        {
          "internalType": "address",
          "name": "",
          "type": "address"
        },
        {
          "internalType": "uint256",
          "name": "",
          "type": "uint256"
        }
      ],
      "name": "tokensDeployedByUsers",
      "outputs": [
        {
          "internalType": "address",
          "name": "token",
          "type": "address"
        },
        {
          "internalType": "uint256",
          "name": "positionId",
          "type": "uint256"
        },
        {
          "internalType": "address",
          "name": "locker",
          "type": "address"
        }
      ],
      "stateMutability": "view",
      "type": "function"
    },
    {
      "inputs": [],
      "name": "uniswapV3Factory",
      "outputs": [
        {
          "internalType": "contract IUniswapV3Factory",
          "name": "",
          "type": "address"
        }
      ],
      "stateMutability": "view",
      "type": "function"
    },
    {
      "inputs": [
        {
          "internalType": "address",
          "name": "newLocker",
          "type": "address"
        }
      ],
      "name": "updateLiquidityLocker",
      "outputs": [],
      "stateMutability": "nonpayable",
      "type": "function"
    },
    {
      "inputs": [],
      "name": "weth",
      "outputs": [
        {
          "internalType": "address",
          "name": "",
          "type": "address"
        }
      ],
      "stateMutability": "view",
      "type": "function"
    }
  ],
  "bytecode": "0x6080346100e657601f61244a38819003918201601f19168301916001600160401b038311848410176100eb578084926060946040528339810103126100e65761004781610101565b61005f604061005860208501610101565b9301610101565b600180546001600160a01b03191673420000000000000000000000000000000000000617905561008e33610115565b5061009833610191565b50600280546001600160a01b03199081166001600160a01b0393841617909155600380548216938316939093179092556004805490921692169190911790556040516121c0908161022a8239f35b600080fd5b634e487b7160e01b600052604160045260246000fd5b51906001600160a01b03821682036100e657565b6001600160a01b038116600090815260008051602061242a833981519152602052604090205460ff1661018b576001600160a01b0316600081815260008051602061242a83398151915260205260408120805460ff191660011790553391906000805160206123ea8339815191528180a4600190565b50600090565b6001600160a01b038116600090815260008051602061240a833981519152602052604090205460ff1661018b576001600160a01b0316600081815260008051602061240a83398151915260205260408120805460ff191660011790553391907ffc425f2263d0df187444b70e47283d622c70181c5baebb1306a01edba1ce184c906000805160206123ea8339815191529080a460019056fe608080604052600436101561001357600080fd5b600090813560e01c90816301ffc9a714611d2b575080630656298014611cca578063248a9ca314611c9c5780632e172e5f146106035780632f2ff15d146105c257806336568abe146105645780633fc8cef31461053d5780635b54918214610516578063791b98bc146104ef57806388aea8721461047457806391d14854146104285780639759164a146104015780639dbb8c9f1461037d578063a217fddf14610361578063bdef36791461025d578063d547741f14610213578063ecd00261146101d85763ef5cfb8c146100e757600080fd5b3461019e57602060031936011261019e576001600160a01b03610108611dcb565b168152600660205261011c60408220611e9b565b6001600160a01b03815116156101b0578060206001600160a01b0360408594015116910151813b156101ac5782916024839260405194859384927fb18486d700000000000000000000000000000000000000000000000000000000845260048401525af180156101a15761018d5750f35b8161019791611e60565b61019e5780f35b80fd5b6040513d84823e3d90fd5b5050fd5b6004827fc5723b51000000000000000000000000000000000000000000000000000000008152fd5b503461019e578060031936011261019e5760206040517ffc425f2263d0df187444b70e47283d622c70181c5baebb1306a01edba1ce184c8152f35b503461019e57604060031936011261019e57610259600435610233611de6565b9061025461024f82600052600060205260016040600020015490565b611ece565b6120fb565b5080f35b503461019e57602060031936011261019e576001600160a01b0361027f611dcb565b168152600560205260408120805467ffffffffffffffff811161034d57604051906102b060208260051b0183611e60565b80825260208201809385526020852085915b83831061032f57868587604051928392602084019060208552518091526040840192915b8181106102f4575050500390f35b91935091602060606001926001600160a01b0360408851828151168452858101518685015201511660408201520194019101918493926102e6565b6003602060019261033f85611e9b565b8152019201920191906102c2565b602483634e487b7160e01b81526041600452fd5b503461019e578060031936011261019e57602090604051908152f35b503461019e57602060031936011261019e57610397611dcb565b81805281602052604082206001600160a01b03331660005260205260ff60406000205416156103ea576001600160a01b031673ffffffffffffffffffffffffffffffffffffffff19600254161760025580f35b60448263e2517d3f60e01b81523360045280602452fd5b503461019e578060031936011261019e5760206001600160a01b0360025416604051908152f35b503461019e57604060031936011261019e576001600160a01b03604061044c611de6565b92600435815280602052209116600052602052602060ff604060002054166040519015158152f35b503461019e57604060031936011261019e5761048e611dcb565b6001600160a01b036024359116825260056020526040822080548210156104eb576104b99250611dfc565b5080546001820154600290920154604080516001600160a01b0393841681526020810194909452911690820152606090f35b8280fd5b503461019e578060031936011261019e5760206001600160a01b0360045416604051908152f35b503461019e578060031936011261019e5760206001600160a01b0360035416604051908152f35b503461019e578060031936011261019e5760206001600160a01b0360015416604051908152f35b503461019e57604060031936011261019e5761057e611de6565b336001600160a01b0382160361059a57610259906004356120fb565b6004827f6697b232000000000000000000000000000000000000000000000000000000008152fd5b503461019e57604060031936011261019e576102596004356105e2611de6565b906105fe61024f82600052600060205260016040600020015490565b612061565b503461019e5760e060031936011261019e57600435906001600160a01b038216820361019e57610631611de6565b906044358060020b8103611438576064359062ffffff821682036104eb5760a435916001600160a01b0383168303611474577ffc425f2263d0df187444b70e47283d622c70181c5baebb1306a01edba1ce184c845283602052604084206001600160a01b033316855260205260ff60408520541615611c65576106ea6040516106bb604082611e60565b600b81527f4372656174696e67204c500000000000000000000000000000000000000000006020820152611f56565b6040517f23b872dd0000000000000000000000000000000000000000000000000000000081523360048201523060248201526084356044820152602081606481886001600160a01b038c165af18015611c0957611c48575b506040517f70a082310000000000000000000000000000000000000000000000000000000081523060048201526020816024816001600160a01b038b165afa8015611c09578590611c14575b6107d091506040516107a1604082611e60565b601181527f546f6b656e2062616c616e63653a2025730000000000000000000000000000006020820152611fc2565b6001600160a01b0360045416604051907f095ea7b300000000000000000000000000000000000000000000000000000000825260048201526084356024820152602081604481886001600160a01b038c165af18015611c0957611bdc575b5061086f604051610840604082611e60565b600e81527f546f6b656e20617070726f7665640000000000000000000000000000000000006020820152611f56565b6001600160a01b0360035416916040517f22afcccb00000000000000000000000000000000000000000000000000000000815262ffffff83166004820152602081602481875afa908115611bd1578691611b91575b508060020b15938480159081611b78575b5015611b1a5761091b6040516108ec604082611e60565b600d81527f5469636b2073706163696e673a000000000000000000000000000000000000006020820152611f56565b6109278260020b61201f565b610967604051610938604082611e60565b600581527f5469636b3a0000000000000000000000000000000000000000000000000000006020820152611f56565b6109738360020b61201f565b6001600160a01b0388166001600160a01b038a16108015611af25715611ae0576001600160a01b03891694885b88806040516109b0604082611e60565b60168152602081017f546f6b656e303a2025732c20546f6b656e313a2025730000000000000000000090526040518091602082017ffcec75e0000000000000000000000000000000000000000000000000000000009052602482016060905260848201610a1c91611f15565b9d6001600160a01b038c1660448301526001600160a01b03169d8e606483015203601f1981018252610a4e9082611e60565b8051906020015a6a636f6e736f6c652e6c6f6790fa50888560020b12600014611ad6577f80000000000000000000000000000000000000000000000000000000000000008560020b14611ac2578460020b8903925b620d89e893848111611a64576001811615611a3b5770ffffffffffffffffffffffffffffffffff6ffffcb933bd6fad37aa2d162d1a5940015b169060028116611a00575b600481166119c5575b6008811661198a575b6010811661194f575b60208116611914575b604081166118d9575b6080811661189e575b6101008116611863575b6102008116611828575b61040081166117ed575b61080081166117b2575b6110008116611777575b612000811661173c575b6140008116611701575b61800081166116c6575b62010000811661168b575b620200008116611652575b620400008116611607575b62080000166115d6575b8a8760020b13611595575b63ffffffff8160201c91161560001461158c5760ff8b5b168101809111611578576001600160a01b0360648e8d836020951695610c1687604051610be8604082611e60565b601081527f7371727450726963655839363a2025730000000000000000000000000000000089820152611fc2565b8460405198899687957fa167129500000000000000000000000000000000000000000000000000000000875216600486015216602484015262ffffff8d1660448401525af191821561156d578a92611529575b508980610cef610d06604051610c80604082611e60565b601081527f506f6f6c20637265617465643a2025730000000000000000000000000000000060208201526001600160a01b036040519384927f319af333000000000000000000000000000000000000000000000000000000006020850152604060248501526064840190611f15565b97169687604483015203601f198101835282611e60565b6020815191016a636f6e736f6c652e6c6f675afa50813b156115255789916024839260405194859384927ff637731d00000000000000000000000000000000000000000000000000000000845260048401525af1801561151a57611506575b50610da6604051610d77604082611e60565b601081527f506f6f6c20696e697469616c697a6564000000000000000000000000000000006020820152611f56565b610de6604051610db7604082611e60565b601281527f6265666f7265206d696e7420706172616d7300000000000000000000000000006020820152611f56565b6114f2578160020b9160020b900560020b028060020b9081036114de5760405193610160850185811067ffffffffffffffff8211176114ca57908795949392916040526001600160a01b0316845260208401978852604084019262ffffff168352606084019160020b82526080840190815260a08401608435815260c0850186815260e0860190878252610100870192888452610120880194308652610140890196428852604051610e99604082611e60565b601381527f4d696e7420706172616d732063726561746564000000000000000000000000006020820152610ecc90611f56565b604051610eda604082611e60565b600981527f7469636b4c6f77657200000000000000000000000000000000000000000000006020820152610f0d90611f56565b805160020b610f1b9061201f565b604051610f29604082611e60565b600981527f7469636b557070657200000000000000000000000000000000000000000000006020820152610f5c90611f56565b815160020b610f6a9061201f565b825160405190610f7b604083611e60565b601282527f616d6f756e7430446573697265643a20257300000000000000000000000000006020830152610fae91611fc2565b835160405190610fbf604083611e60565b601282527f616d6f756e7431446573697265643a20257300000000000000000000000000006020830152610ff291611fc2565b6004546001600160a01b0316986040519e8f9b7f88316456000000000000000000000000000000000000000000000000000000008d52516001600160a01b031660048d0152516001600160a01b031660248c01525162ffffff1660448b01525160020b60648a01525160020b60848901525160a48801525160c48701525160e486015251610104850152516001600160a01b031661012484015251610144830152815a9361016492608095f19283156101a1578293611478575b506110ee836040516110bf604082611e60565b601381527f506f736974696f6e206d696e7465643a202573000000000000000000000000006020820152611fc2565b6001600160a01b03600454166001600160a01b0360025416813b15611474576040517f42842e0e0000000000000000000000000000000000000000000000000000000081523060048201526001600160a01b03919091166024820152604481018590529083908290606490829084905af1801561143c5790839161145f575b50506111af604051611180604082611e60565b601e81527f506f736974696f6e207472616e7366657272656420746f206c6f636b657200006020820152611f56565b6001600160a01b03600254166040516040810181811067ffffffffffffffff82111761144b576040526001600160a01b03831681526020810191858352803b156114475760448592836001600160a01b039360405196879586947f5e22f94f000000000000000000000000000000000000000000000000000000008652511660048501525160248401525af1801561143c57908391611423575b50906001600160a01b039150611295604051611266604082611e60565b601b81527f557365722072657761726420726563697069656e7420616464656400000000006020820152611f56565b6112d56040516112a6604082611e60565b600f81527f506f6f6c20636f6e6669677572656400000000000000000000000000000000006020820152611f56565b81806002541695604051966112e988611e2e565b82821688528660208901526040880152168352600660205261136985604085209060026001600160a01b036040819382808251161673ffffffffffffffffffffffffffffffffffffffff19875416178655602081015160018701550151169201911673ffffffffffffffffffffffffffffffffffffffff19825416179055565b1681526005602052604081208054906801000000000000000082101561034d579061139991600182018155611dfc565b9190916114105750602092611408919060026001600160a01b036040819382808251161673ffffffffffffffffffffffffffffffffffffffff19875416178655602081015160018701550151169201911673ffffffffffffffffffffffffffffffffffffffff19825416179055565b604051908152f35b80634e487b7160e01b6024925280600452fd5b8161142d91611e60565b611438578138611249565b5080fd5b6040513d85823e3d90fd5b8480fd5b602485634e487b7160e01b81526041600452fd5b8161146991611e60565b61143857813861116d565b8380fd5b9092506080813d6080116114c2575b8161149460809383611e60565b8101031261143857602081519101516fffffffffffffffffffffffffffffffff8116036114385791386110ac565b3d9150611487565b602488634e487b7160e01b81526041600452fd5b602486634e487b7160e01b81526011600452fd5b602487634e487b7160e01b81526012600452fd5b8861151391999299611e60565b9638610d65565b6040513d8b823e3d90fd5b8980fd5b9091506020813d602011611565575b8161154560209383611e60565b8101031261152557516001600160a01b0381168103611525579038610c69565b3d9150611538565b6040513d8c823e3d90fd5b60248b634e487b7160e01b81526011600452fd5b60ff6001610bba565b80156115c2577fffffffffffffffffffffffffffffffffffffffffffffffffffffffffffffffff04610ba3565b60248b634e487b7160e01b81526012600452fd5b6b048a170391f7dc42444e8fa28102908082046b048a170391f7dc42444e8fa214901517156115785760801c610b98565b906d2216e584f5fa1ea926041bedfe988102908082046d2216e584f5fa1ea926041bedfe98149015171561163e5760801c90610b8e565b60248c634e487b7160e01b81526011600452fd5b906e5d6af8dedb81196699c329225ee6048102908082046e5d6af8dedb81196699c329225ee604149015171561163e5760801c90610b83565b906f09aa508b5b7a84e1c677de54f3e99bc98102908082046f09aa508b5b7a84e1c677de54f3e99bc9149015171561163e5760801c90610b78565b906f31be135f97d08fd981231505542fcfa68102908082046f31be135f97d08fd981231505542fcfa6149015171561163e5760801c90610b6d565b906f70d869a156d2a1b890bb3df62baf32f78102908082046f70d869a156d2a1b890bb3df62baf32f7149015171561163e5760801c90610b63565b906fa9f746462d870fdf8a65dc1f90e061e58102908082046fa9f746462d870fdf8a65dc1f90e061e5149015171561163e5760801c90610b59565b906fd097f3bdfd2022b8845ad8f792aa58258102908082046fd097f3bdfd2022b8845ad8f792aa5825149015171561163e5760801c90610b4f565b906fe7159475a2c29b7443b29c7fa6e889d98102908082046fe7159475a2c29b7443b29c7fa6e889d9149015171561163e5760801c90610b45565b906ff3392b0822b70005940c7a398e4b70f38102908082046ff3392b0822b70005940c7a398e4b70f3149015171561163e5760801c90610b3b565b906ff987a7253ac413176f2b074cf7815e548102908082046ff987a7253ac413176f2b074cf7815e54149015171561163e5760801c90610b31565b906ffcbe86c7900a88aedcffc83b479aa3a48102908082046ffcbe86c7900a88aedcffc83b479aa3a4149015171561163e5760801c90610b27565b906ffe5dee046a99a2a811c461f1969c30538102908082046ffe5dee046a99a2a811c461f1969c3053149015171561163e5760801c90610b1d565b906fff2ea16466c96a3843ec78b326b528618102908082046fff2ea16466c96a3843ec78b326b52861149015171561163e5760801c90610b14565b906fff973b41fa98c081472e6896dfb254c08102908082046fff973b41fa98c081472e6896dfb254c0149015171561163e5760801c90610b0b565b906fffcb9843d60f6159c9db58835c9266448102908082046fffcb9843d60f6159c9db58835c926644149015171561163e5760801c90610b02565b906fffe5caca7e10e4e61c3624eaa0941cd08102908082046fffe5caca7e10e4e61c3624eaa0941cd0149015171561163e5760801c90610af9565b906ffff2e50f5f656932ef12357cf3c7fdcc8102908082046ffff2e50f5f656932ef12357cf3c7fdcc149015171561163e5760801c90610af0565b906ffff97272373d413259a46990580e213a8102908082046ffff97272373d413259a46990580e213a149015171561163e5760801c90610ae7565b70ffffffffffffffffffffffffffffffffff700100000000000000000000000000000000610adc565b60646040517f08c379a000000000000000000000000000000000000000000000000000000000815260206004820152600160248201527f54000000000000000000000000000000000000000000000000000000000000006044820152fd5b602489634e487b7160e01b81526011600452fd5b8460020b92610aa3565b87946001600160a01b038a16986109a0565b6004887f6dac6a09000000000000000000000000000000000000000000000000000000008152fd5b60646040517f08c379a000000000000000000000000000000000000000000000000000000000815260206004820152600c60248201527f496e76616c6964207469636b00000000000000000000000000000000000000006044820152fd5b90506114f2578160020b8360020b0760020b15856108d5565b90506020813d602011611bc9575b81611bac60209383611e60565b81010312611bc557518060020b8103611bc557386108c4565b8580fd5b3d9150611b9f565b6040513d88823e3d90fd5b611bfd9060203d602011611c02575b611bf58183611e60565b810190611e83565b61082e565b503d611beb565b6040513d87823e3d90fd5b506020813d602011611c40575b81611c2e60209383611e60565b81010312611447576107d0905161078e565b3d9150611c21565b611c609060203d602011611c0257611bf58183611e60565b610742565b60448463e2517d3f60e01b8152336004527ffc425f2263d0df187444b70e47283d622c70181c5baebb1306a01edba1ce184c602452fd5b503461019e57602060031936011261019e576020611408600435600052600060205260016040600020015490565b503461019e57602060031936011261019e576040906001600160a01b03611cef611dcb565b1681526006602090815291902080546001820154600290920154604080516001600160a01b039384168152948501939093521690820152606090f35b905034611438576020600319360112611438576004357fffffffff0000000000000000000000000000000000000000000000000000000081168091036104eb57602092507f7965db0b000000000000000000000000000000000000000000000000000000008114908115611da1575b5015158152f35b7f01ffc9a70000000000000000000000000000000000000000000000000000000091501438611d9a565b600435906001600160a01b0382168203611de157565b600080fd5b602435906001600160a01b0382168203611de157565b8054821015611e18576000526003602060002091020190600090565b634e487b7160e01b600052603260045260246000fd5b6060810190811067ffffffffffffffff821117611e4a57604052565b634e487b7160e01b600052604160045260246000fd5b90601f601f19910116810190811067ffffffffffffffff821117611e4a57604052565b90816020910312611de157518015158103611de15790565b90604051611ea881611e2e565b60406001600160a01b036002839582815416855260018101546020860152015416910152565b80600052600060205260406000206001600160a01b03331660005260205260ff6040600020541615611efd5750565b63e2517d3f60e01b6000523360045260245260446000fd5b919082519283825260005b848110611f41575050601f19601f8460006020809697860101520116010190565b80602080928401015182828601015201611f20565b6000611f9d611fab82936040519283917f41304fac000000000000000000000000000000000000000000000000000000006020840152602060248401526044830190611f15565b03601f198101835282611e60565b6020815191016a636f6e736f6c652e6c6f675afa50565b61200b611fab6000939284936040519384927fb60e72cc000000000000000000000000000000000000000000000000000000006020850152604060248501526064840190611f15565b90604483015203601f198101835282611e60565b60008091604051907f2d5b6cb9000000000000000000000000000000000000000000000000000000006020830152602482015260248152611fab604482611e60565b80600052600060205260406000206001600160a01b03831660005260205260ff60406000205416156000146120f45780600052600060205260406000206001600160a01b0383166000526020526040600020600160ff198254161790556001600160a01b03339216907f2f8788117e7eff1d82e926ec794901d17c78024a50270940304540a733656f0d600080a4600190565b5050600090565b80600052600060205260406000206001600160a01b03831660005260205260ff604060002054166000146120f45780600052600060205260406000206001600160a01b038316600052602052604060002060ff1981541690556001600160a01b03339216907ff6391f5c32d9c69d2a47ea670b442974b53935d1edc7fd64eb21e047a839171b600080a460019056fea2646970667358221220d311d3cee7d423f1f26b6696fc9d7337aa3982c46e5c7cf62a7873ace8d4c55a64736f6c634300081a00332f8788117e7eff1d82e926ec794901d17c78024a50270940304540a733656f0d740c5e3e456bed56f053f960110118ba9b95a1f5359a82283516fb2e81b6e37ead3228b676f7d3cd4284a5443f17f1962b36e491b30a40b2405849e597ba5fb5",
  "linkReferences": {},
  "deployedLinkReferences": {}
}