{
  "_format": "hh-sol-artifact-1",
  "contractName": "StakingFactory",
  "sourceName": "contracts/hook/staking/StakingFactory.sol",
  "abi": [
    {
      "inputs": [
        {
          "internalType": "contract IGDAv1Forwarder",
          "name": "_gda",
          "type": "address"
        },
        {
          "internalType": "address",
          "name": "_stakedTokenImplementation",
          "type": "address"
        },
        {
          "internalType": "address",
          "name": "_teamRecipient",
          "type": "address"
        }
      ],
      "stateMutability": "nonpayable",
      "type": "constructor"
    },
    {
      "inputs": [],
      "name": "AccessControlBadConfirmation",
      "type": "error"
    },
    {
      "inputs": [
        {
          "internalType": "address",
          "name": "account",
          "type": "address"
        },
        {
          "internalType": "bytes32",
          "name": "neededRole",
          "type": "bytes32"
        }
      ],
      "name": "AccessControlUnauthorizedAccount",
      "type": "error"
    },
    {
      "inputs": [],
      "name": "FailedDeployment",
      "type": "error"
    },
    {
      "inputs": [
        {
          "internalType": "uint256",
          "name": "balance",
          "type": "uint256"
        },
        {
          "internalType": "uint256",
          "name": "needed",
          "type": "uint256"
        }
      ],
      "name": "InsufficientBalance",
      "type": "error"
    },
    {
      "anonymous": false,
      "inputs": [
        {
          "indexed": false,
          "internalType": "uint256",
          "name": "duration",
          "type": "uint256"
        }
      ],
      "name": "LockDurationUpdated",
      "type": "event"
    },
    {
      "anonymous": false,
      "inputs": [
        {
          "indexed": true,
          "internalType": "bytes32",
          "name": "role",
          "type": "bytes32"
        },
        {
          "indexed": true,
          "internalType": "bytes32",
          "name": "previousAdminRole",
          "type": "bytes32"
        },
        {
          "indexed": true,
          "internalType": "bytes32",
          "name": "newAdminRole",
          "type": "bytes32"
        }
      ],
      "name": "RoleAdminChanged",
      "type": "event"
    },
    {
      "anonymous": false,
      "inputs": [
        {
          "indexed": true,
          "internalType": "bytes32",
          "name": "role",
          "type": "bytes32"
        },
        {
          "indexed": true,
          "internalType": "address",
          "name": "account",
          "type": "address"
        },
        {
          "indexed": true,
          "internalType": "address",
          "name": "sender",
          "type": "address"
        }
      ],
      "name": "RoleGranted",
      "type": "event"
    },
    {
      "anonymous": false,
      "inputs": [
        {
          "indexed": true,
          "internalType": "bytes32",
          "name": "role",
          "type": "bytes32"
        },
        {
          "indexed": true,
          "internalType": "address",
          "name": "account",
          "type": "address"
        },
        {
          "indexed": true,
          "internalType": "address",
          "name": "sender",
          "type": "address"
        }
      ],
      "name": "RoleRevoked",
      "type": "event"
    },
    {
      "anonymous": false,
      "inputs": [
        {
          "indexed": false,
          "internalType": "address",
          "name": "stakeToken",
          "type": "address"
        },
        {
          "indexed": false,
          "internalType": "address",
          "name": "depositToken",
          "type": "address"
        },
        {
          "indexed": false,
          "internalType": "address",
          "name": "pool",
          "type": "address"
        }
      ],
      "name": "StakedTokenCreated",
      "type": "event"
    },
    {
      "inputs": [],
      "name": "DEFAULT_ADMIN_ROLE",
      "outputs": [
        {
          "internalType": "bytes32",
          "name": "",
          "type": "bytes32"
        }
      ],
      "stateMutability": "view",
      "type": "function"
    },
    {
      "inputs": [],
      "name": "DEPLOYER_ROLE",
      "outputs": [
        {
          "internalType": "bytes32",
          "name": "",
          "type": "bytes32"
        }
      ],
      "stateMutability": "view",
      "type": "function"
    },
    {
      "inputs": [],
      "name": "MANAGER_ROLE",
      "outputs": [
        {
          "internalType": "bytes32",
          "name": "",
          "type": "bytes32"
        }
      ],
      "stateMutability": "view",
      "type": "function"
    },
    {
      "inputs": [],
      "name": "config",
      "outputs": [
        {
          "internalType": "bool",
          "name": "transferabilityForUnitsOwner",
          "type": "bool"
        },
        {
          "internalType": "bool",
          "name": "distributionFromAnyAddress",
          "type": "bool"
        }
      ],
      "stateMutability": "view",
      "type": "function"
    },
    {
      "inputs": [],
      "name": "flowDuration",
      "outputs": [
        {
          "internalType": "int96",
          "name": "",
          "type": "int96"
        }
      ],
      "stateMutability": "view",
      "type": "function"
    },
    {
      "inputs": [],
      "name": "gda",
      "outputs": [
        {
          "internalType": "contract IGDAv1Forwarder",
          "name": "",
          "type": "address"
        }
      ],
      "stateMutability": "view",
      "type": "function"
    },
    {
      "inputs": [
        {
          "internalType": "bytes32",
          "name": "role",
          "type": "bytes32"
        }
      ],
      "name": "getRoleAdmin",
      "outputs": [
        {
          "internalType": "bytes32",
          "name": "",
          "type": "bytes32"
        }
      ],
      "stateMutability": "view",
      "type": "function"
    },
    {
      "inputs": [
        {
          "internalType": "bytes32",
          "name": "role",
          "type": "bytes32"
        },
        {
          "internalType": "address",
          "name": "account",
          "type": "address"
        }
      ],
      "name": "grantRole",
      "outputs": [],
      "stateMutability": "nonpayable",
      "type": "function"
    },
    {
      "inputs": [
        {
          "internalType": "bytes32",
          "name": "role",
          "type": "bytes32"
        },
        {
          "internalType": "address",
          "name": "account",
          "type": "address"
        }
      ],
      "name": "hasRole",
      "outputs": [
        {
          "internalType": "bool",
          "name": "",
          "type": "bool"
        }
      ],
      "stateMutability": "view",
      "type": "function"
    },
    {
      "inputs": [
        {
          "internalType": "address",
          "name": "stakeableToken",
          "type": "address"
        },
        {
          "internalType": "address",
          "name": "admin",
          "type": "address"
        }
      ],
      "name": "hook",
      "outputs": [
        {
          "internalType": "address",
          "name": "",
          "type": "address"
        }
      ],
      "stateMutability": "nonpayable",
      "type": "function"
    },
    {
      "inputs": [],
      "name": "lockDuration",
      "outputs": [
        {
          "internalType": "uint256",
          "name": "",
          "type": "uint256"
        }
      ],
      "stateMutability": "view",
      "type": "function"
    },
    {
      "inputs": [
        {
          "internalType": "address",
          "name": "stakeableToken",
          "type": "address"
        }
      ],
      "name": "predictStakedTokenAddress",
      "outputs": [
        {
          "internalType": "address",
          "name": "",
          "type": "address"
        }
      ],
      "stateMutability": "view",
      "type": "function"
    },
    {
      "inputs": [
        {
          "internalType": "bytes32",
          "name": "role",
          "type": "bytes32"
        },
        {
          "internalType": "address",
          "name": "callerConfirmation",
          "type": "address"
        }
      ],
      "name": "renounceRole",
      "outputs": [],
      "stateMutability": "nonpayable",
      "type": "function"
    },
    {
      "inputs": [
        {
          "internalType": "bytes32",
          "name": "role",
          "type": "bytes32"
        },
        {
          "internalType": "address",
          "name": "account",
          "type": "address"
        }
      ],
      "name": "revokeRole",
      "outputs": [],
      "stateMutability": "nonpayable",
      "type": "function"
    },
    {
      "inputs": [
        {
          "internalType": "int96",
          "name": "_flowDuration",
          "type": "int96"
        }
      ],
      "name": "setFlowDuration",
      "outputs": [],
      "stateMutability": "nonpayable",
      "type": "function"
    },
    {
      "inputs": [
        {
          "internalType": "contract IGDAv1Forwarder",
          "name": "_gda",
          "type": "address"
        }
      ],
      "name": "setGDA",
      "outputs": [],
      "stateMutability": "nonpayable",
      "type": "function"
    },
    {
      "inputs": [
        {
          "internalType": "uint256",
          "name": "_lockDuration",
          "type": "uint256"
        }
      ],
      "name": "setLockDuration",
      "outputs": [],
      "stateMutability": "nonpayable",
      "type": "function"
    },
    {
      "inputs": [
        {
          "internalType": "uint256",
          "name": "_percentageForRewards",
          "type": "uint256"
        }
      ],
      "name": "setPercentageForRewards",
      "outputs": [],
      "stateMutability": "nonpayable",
      "type": "function"
    },
    {
      "inputs": [
        {
          "internalType": "address",
          "name": "_stakedTokenImplementation",
          "type": "address"
        }
      ],
      "name": "setStakedTokenImplementation",
      "outputs": [],
      "stateMutability": "nonpayable",
      "type": "function"
    },
    {
      "inputs": [],
      "name": "stakedTokenImplementation",
      "outputs": [
        {
          "internalType": "address",
          "name": "",
          "type": "address"
        }
      ],
      "stateMutability": "view",
      "type": "function"
    },
    {
      "inputs": [
        {
          "internalType": "bytes4",
          "name": "interfaceId",
          "type": "bytes4"
        }
      ],
      "name": "supportsInterface",
      "outputs": [
        {
          "internalType": "bool",
          "name": "",
          "type": "bool"
        }
      ],
      "stateMutability": "view",
      "type": "function"
    },
    {
      "inputs": [],
      "name": "teamRecipient",
      "outputs": [
        {
          "internalType": "address",
          "name": "",
          "type": "address"
        }
      ],
      "stateMutability": "view",
      "type": "function"
    }
  ],
  "bytecode": "0x60806040523461014157604051601f6114aa38819003918201601f19168301916001600160401b0383118484101761012b578084926060946040528339810103126101415780516001600160a01b038116919082900361014157610071604061006a60208401610146565b9201610146565b604080519193919081016001600160401b0381118282101761012b576040526000815260016020909101526003805461ffff19166101001790556014600455600580546001600160601b0319166301e133801790556276a7006006556100d63361015a565b506100e0336101d6565b50600180546001600160a01b03199081169290921790556002805482166001600160a01b0393841617905560078054909116929091169190911790556040516111db908161026f8239f35b634e487b7160e01b600052604160045260246000fd5b600080fd5b51906001600160a01b038216820361014157565b6001600160a01b038116600090815260008051602061148a833981519152602052604090205460ff166101d0576001600160a01b0316600081815260008051602061148a83398151915260205260408120805460ff1916600117905533919060008051602061144a8339815191528180a4600190565b50600090565b6001600160a01b038116600090815260008051602061146a833981519152602052604090205460ff166101d0576001600160a01b0316600081815260008051602061146a83398151915260205260408120805460ff191660011790553391907f241ecf16d79d0f8dbfb92cbc07fe17840425976cf0667f022fe9877caa831b089060008051602061144a8339815191529080a460019056fe608080604052600436101561001357600080fd5b600090813560e01c90816301ffc9a714610df2575080630455444314610dd45780630881dd4414610d325780631a52394314610cd0578063248a9ca314610c9a5780632f2ff15d14610c5957806336568abe14610bfb57806337259b7d14610bd457806337ad4d8b14610bad5780634ce6d77a14610b535780634eb665af14610b05578063534b0cca14610ae25780635fbd36fa14610abb5780636497d28514610a9a57806379502c5514610a6b57806391d1485414610a24578063963a22ab146109cd578063a217fddf146109b1578063d547741f14610967578063e5b4abd11461018b578063ec87621c146101505763ecd002611461011357600080fd5b3461014d578060031936011261014d5760206040517ffc425f2263d0df187444b70e47283d622c70181c5baebb1306a01edba1ce184c8152f35b80fd5b503461014d578060031936011261014d5760206040517f241ecf16d79d0f8dbfb92cbc07fe17840425976cf0667f022fe9877caa831b088152f35b503461014d57604060031936011261014d576101a5610e92565b906101ae610ead565b907ffc425f2263d0df187444b70e47283d622c70181c5baebb1306a01edba1ce184c815280602052604081206001600160a01b033316825260205260ff60408220541615610930576001600160a01b036040519381602086019116948582526020815261021c604082610ec3565b5190206e5af43d82803e903d91602b57fd5bf37fffffffffffffffffffffffffffffffffff000000000000000000000000000000600254763d602d80600a3d3981f3363d3d373d3d3d363d7300000062ffffff8260881c1617865260781b16176020526037600984f51691821561090857819060406001600160a01b036001541660848251809681937f0779d3650000000000000000000000000000000000000000000000000000000083528a600484015289602484015260ff6003548181161515604486015260081c16151560648401525af19283156107c957829083946108b7575b501561083357604051907f06fdde030000000000000000000000000000000000000000000000000000000082528282600481895afa918215610788578392610817575b50610398602760405180947f5374616b6564200000000000000000000000000000000000000000000000000060208301526103878151809260208686019101610f09565b81010301601f198101845283610ec3565b604051937f95d89b4100000000000000000000000000000000000000000000000000000000855283856004818a5afa94851561080c5784956107e8575b5061042a602260405180977f737400000000000000000000000000000000000000000000000000000000000060208301526104198151809260208686019101610f09565b81010301601f198101875286610ec3565b600654946001600160a01b036007541690873b156107e457918593916001600160a01b036104aa8195610498604051998a9889987f987b4c39000000000000000000000000000000000000000000000000000000008a5216600489015260e0602489015260e4880190610f9e565b90600319878303016044880152610f9e565b928b6064860152169788608485015260a484015260c4830152038183885af180156107c95782906107d4575b50506040517fdd62ed3e000000000000000000000000000000000000000000000000000000008152336004820152306024820152602081604481885afa9081156107c9578291610793575b506004549081810291818304149015171561071557606490046040517f23b872dd000000000000000000000000000000000000000000000000000000008152336004820152306024820152816044820152602081606481868a5af180156107885761073d575b506bffffffffffffffffffffffff16600b0b90600554600b0b8015610729577fffffffffffffffffffffffffffffffffffffffffffffffffffffffffffffffff81147fffffffffffffffffffffffffffffffffffffffff8000000000000000000000008414166107155760209060c46001600160a01b0360015416948460405196879485937f5a6c6dbc0000000000000000000000000000000000000000000000000000000085528c60048601523060248601528a604486015205600b0b606484015260a060848401528160a48401525af18015610708576106a5575b6020847fa9b630e452ffef86e8987aaf1ff34d8a2edee13a9ff16e3bb154e7648365d5e66060888760405191858352868301526040820152a1604051908152f35b6020823d602011610700575b816106be60209383610ec3565b8101031261014d57506020937fa9b630e452ffef86e8987aaf1ff34d8a2edee13a9ff16e3bb154e7648365d5e6926106f7606093610efc565b50925093610664565b3d91506106b1565b50604051903d90823e3d90fd5b602482634e487b7160e01b81526011600452fd5b602482634e487b7160e01b81526012600452fd5b6020813d602011610780575b8161075660209383610ec3565b8101031261077c57906107756bffffffffffffffffffffffff92610efc565b5090610587565b8280fd5b3d9150610749565b6040513d85823e3d90fd5b90506020813d6020116107c1575b816107ae60209383610ec3565b810103126107bd575138610521565b5080fd5b3d91506107a1565b6040513d84823e3d90fd5b6107dd91610ec3565b38816104d6565b8580fd5b6108059195503d8086833e6107fd8183610ec3565b810190610f2c565b93386103d5565b6040513d86823e3d90fd5b61082c9192503d8085833e6107fd8183610ec3565b9038610343565b60846040517f08c379a000000000000000000000000000000000000000000000000000000000815260206004820152602560248201527f5374616b696e67466163746f72793a206661696c656420746f2063726561746560448201527f20706f6f6c0000000000000000000000000000000000000000000000000000006064820152fd5b9350506040833d604011610900575b816108d360409383610ec3565b810103126107bd5760206108e684610efc565b930151926001600160a01b038416840361077c5738610300565b3d91506108c6565b6004827fb06ebf3d000000000000000000000000000000000000000000000000000000008152fd5b8063e2517d3f60e01b60449252336004527ffc425f2263d0df187444b70e47283d622c70181c5baebb1306a01edba1ce184c602452fd5b503461014d57604060031936011261014d576109ad600435610987610ead565b906109a86109a382600052600060205260016040600020015490565b611035565b611116565b5080f35b503461014d578060031936011261014d57602090604051908152f35b503461014d57602060031936011261014d576001600160a01b036109ef610e92565b6109f7610fc3565b167fffffffffffffffffffffffff0000000000000000000000000000000000000000600254161760025580f35b503461014d57604060031936011261014d5760ff6040602092610a45610ead565b60043582528185526001600160a01b038383209116825284522054166040519015158152f35b503461014d578060031936011261014d57604060035460ff8251918181161515835260081c1615156020820152f35b503461014d578060031936011261014d576020600554600b0b604051908152f35b503461014d578060031936011261014d5760206001600160a01b0360015416604051908152f35b503461014d57602060031936011261014d57610afc610fc3565b60043560045580f35b503461014d57602060031936011261014d577f3e062f634a950eae456fa5f8fb53a4f59f55039983bd73df7a34a313b75443d46020600435610b45610fc3565b80600655604051908152a180f35b503461014d57602060031936011261014d576004356001600160a01b0381168091036107bd57610b81610fc3565b7fffffffffffffffffffffffff0000000000000000000000000000000000000000600154161760015580f35b503461014d578060031936011261014d5760206001600160a01b0360075416604051908152f35b503461014d578060031936011261014d5760206001600160a01b0360025416604051908152f35b503461014d57604060031936011261014d57610c15610ead565b336001600160a01b03821603610c31576109ad90600435611116565b6004827f6697b232000000000000000000000000000000000000000000000000000000008152fd5b503461014d57604060031936011261014d576109ad600435610c79610ead565b90610c956109a382600052600060205260016040600020015490565b61107c565b503461014d57602060031936011261014d576020610cc8600435600052600060205260016040600020015490565b604051908152f35b503461014d57602060031936011261014d5760043580600b0b81036107bd57610cf7610fc3565b7fffffffffffffffffffffffffffffffffffffffff00000000000000000000000060055416906bffffffffffffffffffffffff161760055580f35b503461014d57602060031936011261014d5760206001600160a01b0360556043610d5a610e92565b6040518486820192168252858152610d73604082610ec3565b519020836002541690604051913060388401526f5af43d82803e903d91602b57fd5bf3ff60248401526014830152733d602d80600a3d3981f3363d3d373d3d3d363d73825260588201526037600c8201206078820152012016604051908152f35b503461014d578060031936011261014d576020600654604051908152f35b9050346107bd5760206003193601126107bd576004357fffffffff00000000000000000000000000000000000000000000000000000000811680910361077c57602092507f7965db0b000000000000000000000000000000000000000000000000000000008114908115610e68575b5015158152f35b7f01ffc9a70000000000000000000000000000000000000000000000000000000091501438610e61565b600435906001600160a01b0382168203610ea857565b600080fd5b602435906001600160a01b0382168203610ea857565b90601f601f19910116810190811067ffffffffffffffff821117610ee657604052565b634e487b7160e01b600052604160045260246000fd5b51908115158203610ea857565b60005b838110610f1c5750506000910152565b8181015183820152602001610f0c565b602081830312610ea85780519067ffffffffffffffff8211610ea8570181601f82011215610ea857805167ffffffffffffffff8111610ee65760405192610f7d6020601f19601f8501160185610ec3565b81845260208284010111610ea857610f9b9160208085019101610f09565b90565b90601f19601f602093610fbc81518092818752878088019101610f09565b0116010190565b3360009081527fe84508f2c7fa9c351146748b3025cb78b45df37d868e48c6a75102fecdeee645602052604090205460ff1615610ffc57565b63e2517d3f60e01b600052336004527f241ecf16d79d0f8dbfb92cbc07fe17840425976cf0667f022fe9877caa831b0860245260446000fd5b80600052600060205260406000206001600160a01b03331660005260205260ff60406000205416156110645750565b63e2517d3f60e01b6000523360045260245260446000fd5b80600052600060205260406000206001600160a01b03831660005260205260ff604060002054161560001461110f5780600052600060205260406000206001600160a01b0383166000526020526040600020600160ff198254161790556001600160a01b03339216907f2f8788117e7eff1d82e926ec794901d17c78024a50270940304540a733656f0d600080a4600190565b5050600090565b80600052600060205260406000206001600160a01b03831660005260205260ff6040600020541660001461110f5780600052600060205260406000206001600160a01b038316600052602052604060002060ff1981541690556001600160a01b03339216907ff6391f5c32d9c69d2a47ea670b442974b53935d1edc7fd64eb21e047a839171b600080a460019056fea2646970667358221220b9f2bfbf909654ead706c4c8f10c8368961536412d226b7d72769112f69546f264736f6c634300081a00332f8788117e7eff1d82e926ec794901d17c78024a50270940304540a733656f0de84508f2c7fa9c351146748b3025cb78b45df37d868e48c6a75102fecdeee645ad3228b676f7d3cd4284a5443f17f1962b36e491b30a40b2405849e597ba5fb5",
  "linkReferences": {},
  "deployedLinkReferences": {}
}