{
  "_format": "hh-sol-artifact-1",
  "contractName": "StakedToken",
  "sourceName": "contracts/hook/staking/StakedToken.sol",
  "abi": [
    {
      "inputs": [],
      "stateMutability": "nonpayable",
      "type": "constructor"
    },
    {
      "inputs": [],
      "name": "AccessControlBadConfirmation",
      "type": "error"
    },
    {
      "inputs": [
        {
          "internalType": "address",
          "name": "account",
          "type": "address"
        },
        {
          "internalType": "bytes32",
          "name": "neededRole",
          "type": "bytes32"
        }
      ],
      "name": "AccessControlUnauthorizedAccount",
      "type": "error"
    },
    {
      "inputs": [
        {
          "internalType": "address",
          "name": "spender",
          "type": "address"
        },
        {
          "internalType": "uint256",
          "name": "allowance",
          "type": "uint256"
        },
        {
          "internalType": "uint256",
          "name": "needed",
          "type": "uint256"
        }
      ],
      "name": "ERC20InsufficientAllowance",
      "type": "error"
    },
    {
      "inputs": [
        {
          "internalType": "address",
          "name": "sender",
          "type": "address"
        },
        {
          "internalType": "uint256",
          "name": "balance",
          "type": "uint256"
        },
        {
          "internalType": "uint256",
          "name": "needed",
          "type": "uint256"
        }
      ],
      "name": "ERC20InsufficientBalance",
      "type": "error"
    },
    {
      "inputs": [
        {
          "internalType": "address",
          "name": "approver",
          "type": "address"
        }
      ],
      "name": "ERC20InvalidApprover",
      "type": "error"
    },
    {
      "inputs": [
        {
          "internalType": "address",
          "name": "receiver",
          "type": "address"
        }
      ],
      "name": "ERC20InvalidReceiver",
      "type": "error"
    },
    {
      "inputs": [
        {
          "internalType": "address",
          "name": "sender",
          "type": "address"
        }
      ],
      "name": "ERC20InvalidSender",
      "type": "error"
    },
    {
      "inputs": [
        {
          "internalType": "address",
          "name": "spender",
          "type": "address"
        }
      ],
      "name": "ERC20InvalidSpender",
      "type": "error"
    },
    {
      "inputs": [],
      "name": "InvalidInitialization",
      "type": "error"
    },
    {
      "inputs": [],
      "name": "NotInitializing",
      "type": "error"
    },
    {
      "inputs": [],
      "name": "ReentrancyGuardReentrantCall",
      "type": "error"
    },
    {
      "anonymous": false,
      "inputs": [
        {
          "indexed": true,
          "internalType": "address",
          "name": "owner",
          "type": "address"
        },
        {
          "indexed": true,
          "internalType": "address",
          "name": "spender",
          "type": "address"
        },
        {
          "indexed": false,
          "internalType": "uint256",
          "name": "value",
          "type": "uint256"
        }
      ],
      "name": "Approval",
      "type": "event"
    },
    {
      "anonymous": false,
      "inputs": [
        {
          "indexed": true,
          "internalType": "address",
          "name": "account",
          "type": "address"
        },
        {
          "indexed": false,
          "internalType": "uint256",
          "name": "depositTimestamp",
          "type": "uint256"
        },
        {
          "indexed": false,
          "internalType": "uint256",
          "name": "amount",
          "type": "uint256"
        }
      ],
      "name": "Deposit",
      "type": "event"
    },
    {
      "anonymous": false,
      "inputs": [
        {
          "indexed": false,
          "internalType": "uint64",
          "name": "version",
          "type": "uint64"
        }
      ],
      "name": "Initialized",
      "type": "event"
    },
    {
      "anonymous": false,
      "inputs": [
        {
          "indexed": false,
          "internalType": "uint256",
          "name": "duration",
          "type": "uint256"
        }
      ],
      "name": "LockDurationUpdated",
      "type": "event"
    },
    {
      "anonymous": false,
      "inputs": [
        {
          "indexed": true,
          "internalType": "bytes32",
          "name": "role",
          "type": "bytes32"
        },
        {
          "indexed": true,
          "internalType": "bytes32",
          "name": "previousAdminRole",
          "type": "bytes32"
        },
        {
          "indexed": true,
          "internalType": "bytes32",
          "name": "newAdminRole",
          "type": "bytes32"
        }
      ],
      "name": "RoleAdminChanged",
      "type": "event"
    },
    {
      "anonymous": false,
      "inputs": [
        {
          "indexed": true,
          "internalType": "bytes32",
          "name": "role",
          "type": "bytes32"
        },
        {
          "indexed": true,
          "internalType": "address",
          "name": "account",
          "type": "address"
        },
        {
          "indexed": true,
          "internalType": "address",
          "name": "sender",
          "type": "address"
        }
      ],
      "name": "RoleGranted",
      "type": "event"
    },
    {
      "anonymous": false,
      "inputs": [
        {
          "indexed": true,
          "internalType": "bytes32",
          "name": "role",
          "type": "bytes32"
        },
        {
          "indexed": true,
          "internalType": "address",
          "name": "account",
          "type": "address"
        },
        {
          "indexed": true,
          "internalType": "address",
          "name": "sender",
          "type": "address"
        }
      ],
      "name": "RoleRevoked",
      "type": "event"
    },
    {
      "anonymous": false,
      "inputs": [
        {
          "indexed": true,
          "internalType": "address",
          "name": "from",
          "type": "address"
        },
        {
          "indexed": true,
          "internalType": "address",
          "name": "to",
          "type": "address"
        },
        {
          "indexed": false,
          "internalType": "uint256",
          "name": "value",
          "type": "uint256"
        }
      ],
      "name": "Transfer",
      "type": "event"
    },
    {
      "anonymous": false,
      "inputs": [
        {
          "indexed": true,
          "internalType": "address",
          "name": "account",
          "type": "address"
        },
        {
          "indexed": false,
          "internalType": "uint256",
          "name": "depositTimestamp",
          "type": "uint256"
        },
        {
          "indexed": false,
          "internalType": "uint256",
          "name": "amount",
          "type": "uint256"
        }
      ],
      "name": "Withdraw",
      "type": "event"
    },
    {
      "inputs": [],
      "name": "DEFAULT_ADMIN_ROLE",
      "outputs": [
        {
          "internalType": "bytes32",
          "name": "",
          "type": "bytes32"
        }
      ],
      "stateMutability": "view",
      "type": "function"
    },
    {
      "inputs": [],
      "name": "MANAGER_ROLE",
      "outputs": [
        {
          "internalType": "bytes32",
          "name": "",
          "type": "bytes32"
        }
      ],
      "stateMutability": "view",
      "type": "function"
    },
    {
      "inputs": [
        {
          "internalType": "address",
          "name": "owner",
          "type": "address"
        },
        {
          "internalType": "address",
          "name": "spender",
          "type": "address"
        }
      ],
      "name": "allowance",
      "outputs": [
        {
          "internalType": "uint256",
          "name": "",
          "type": "uint256"
        }
      ],
      "stateMutability": "view",
      "type": "function"
    },
    {
      "inputs": [
        {
          "internalType": "address",
          "name": "spender",
          "type": "address"
        },
        {
          "internalType": "uint256",
          "name": "value",
          "type": "uint256"
        }
      ],
      "name": "approve",
      "outputs": [
        {
          "internalType": "bool",
          "name": "",
          "type": "bool"
        }
      ],
      "stateMutability": "nonpayable",
      "type": "function"
    },
    {
      "inputs": [
        {
          "internalType": "address",
          "name": "account",
          "type": "address"
        }
      ],
      "name": "balanceOf",
      "outputs": [
        {
          "internalType": "uint256",
          "name": "",
          "type": "uint256"
        }
      ],
      "stateMutability": "view",
      "type": "function"
    },
    {
      "inputs": [
        {
          "internalType": "uint256",
          "name": "value",
          "type": "uint256"
        }
      ],
      "name": "burn",
      "outputs": [],
      "stateMutability": "nonpayable",
      "type": "function"
    },
    {
      "inputs": [
        {
          "internalType": "address",
          "name": "account",
          "type": "address"
        },
        {
          "internalType": "uint256",
          "name": "value",
          "type": "uint256"
        }
      ],
      "name": "burnFrom",
      "outputs": [],
      "stateMutability": "nonpayable",
      "type": "function"
    },
    {
      "inputs": [],
      "name": "decimals",
      "outputs": [
        {
          "internalType": "uint8",
          "name": "",
          "type": "uint8"
        }
      ],
      "stateMutability": "view",
      "type": "function"
    },
    {
      "inputs": [
        {
          "internalType": "address",
          "name": "account",
          "type": "address"
        }
      ],
      "name": "depositTimestamps",
      "outputs": [
        {
          "internalType": "uint256",
          "name": "",
          "type": "uint256"
        }
      ],
      "stateMutability": "view",
      "type": "function"
    },
    {
      "inputs": [
        {
          "internalType": "bytes32",
          "name": "role",
          "type": "bytes32"
        }
      ],
      "name": "getRoleAdmin",
      "outputs": [
        {
          "internalType": "bytes32",
          "name": "",
          "type": "bytes32"
        }
      ],
      "stateMutability": "view",
      "type": "function"
    },
    {
      "inputs": [
        {
          "internalType": "bytes32",
          "name": "role",
          "type": "bytes32"
        },
        {
          "internalType": "address",
          "name": "account",
          "type": "address"
        }
      ],
      "name": "grantRole",
      "outputs": [],
      "stateMutability": "nonpayable",
      "type": "function"
    },
    {
      "inputs": [
        {
          "internalType": "bytes32",
          "name": "role",
          "type": "bytes32"
        },
        {
          "internalType": "address",
          "name": "account",
          "type": "address"
        }
      ],
      "name": "hasRole",
      "outputs": [
        {
          "internalType": "bool",
          "name": "",
          "type": "bool"
        }
      ],
      "stateMutability": "view",
      "type": "function"
    },
    {
      "inputs": [
        {
          "internalType": "address",
          "name": "_defaultAdmin",
          "type": "address"
        },
        {
          "internalType": "string",
          "name": "_name",
          "type": "string"
        },
        {
          "internalType": "string",
          "name": "_symbol",
          "type": "string"
        },
        {
          "internalType": "address",
          "name": "_stakeableToken",
          "type": "address"
        },
        {
          "internalType": "address",
          "name": "_pool",
          "type": "address"
        },
        {
          "internalType": "uint256",
          "name": "_lockDuration",
          "type": "uint256"
        },
        {
          "internalType": "address",
          "name": "_teamRecipient",
          "type": "address"
        }
      ],
      "name": "initialize",
      "outputs": [],
      "stateMutability": "nonpayable",
      "type": "function"
    },
    {
      "inputs": [],
      "name": "lockDuration",
      "outputs": [
        {
          "internalType": "uint256",
          "name": "",
          "type": "uint256"
        }
      ],
      "stateMutability": "view",
      "type": "function"
    },
    {
      "inputs": [],
      "name": "name",
      "outputs": [
        {
          "internalType": "string",
          "name": "",
          "type": "string"
        }
      ],
      "stateMutability": "view",
      "type": "function"
    },
    {
      "inputs": [],
      "name": "pool",
      "outputs": [
        {
          "internalType": "contract IDistributionPool",
          "name": "",
          "type": "address"
        }
      ],
      "stateMutability": "view",
      "type": "function"
    },
    {
      "inputs": [
        {
          "internalType": "uint256",
          "name": "newDuration",
          "type": "uint256"
        }
      ],
      "name": "reduceLockDuration",
      "outputs": [],
      "stateMutability": "nonpayable",
      "type": "function"
    },
    {
      "inputs": [
        {
          "internalType": "bytes32",
          "name": "role",
          "type": "bytes32"
        },
        {
          "internalType": "address",
          "name": "callerConfirmation",
          "type": "address"
        }
      ],
      "name": "renounceRole",
      "outputs": [],
      "stateMutability": "nonpayable",
      "type": "function"
    },
    {
      "inputs": [
        {
          "internalType": "bytes32",
          "name": "role",
          "type": "bytes32"
        },
        {
          "internalType": "address",
          "name": "account",
          "type": "address"
        }
      ],
      "name": "revokeRole",
      "outputs": [],
      "stateMutability": "nonpayable",
      "type": "function"
    },
    {
      "inputs": [
        {
          "internalType": "contract IDistributionPool",
          "name": "_pool",
          "type": "address"
        }
      ],
      "name": "setPool",
      "outputs": [],
      "stateMutability": "nonpayable",
      "type": "function"
    },
    {
      "inputs": [
        {
          "internalType": "uint256",
          "name": "_unitDecimals",
          "type": "uint256"
        }
      ],
      "name": "setUnitDecimals",
      "outputs": [],
      "stateMutability": "nonpayable",
      "type": "function"
    },
    {
      "inputs": [
        {
          "internalType": "address",
          "name": "to",
          "type": "address"
        },
        {
          "internalType": "uint256",
          "name": "amount",
          "type": "uint256"
        }
      ],
      "name": "stake",
      "outputs": [],
      "stateMutability": "nonpayable",
      "type": "function"
    },
    {
      "inputs": [],
      "name": "stakeableToken",
      "outputs": [
        {
          "internalType": "contract IERC20",
          "name": "",
          "type": "address"
        }
      ],
      "stateMutability": "view",
      "type": "function"
    },
    {
      "inputs": [
        {
          "internalType": "bytes4",
          "name": "interfaceId",
          "type": "bytes4"
        }
      ],
      "name": "supportsInterface",
      "outputs": [
        {
          "internalType": "bool",
          "name": "",
          "type": "bool"
        }
      ],
      "stateMutability": "view",
      "type": "function"
    },
    {
      "inputs": [],
      "name": "symbol",
      "outputs": [
        {
          "internalType": "string",
          "name": "",
          "type": "string"
        }
      ],
      "stateMutability": "view",
      "type": "function"
    },
    {
      "inputs": [],
      "name": "totalSupply",
      "outputs": [
        {
          "internalType": "uint256",
          "name": "",
          "type": "uint256"
        }
      ],
      "stateMutability": "view",
      "type": "function"
    },
    {
      "inputs": [
        {
          "internalType": "address",
          "name": "to",
          "type": "address"
        },
        {
          "internalType": "uint256",
          "name": "value",
          "type": "uint256"
        }
      ],
      "name": "transfer",
      "outputs": [
        {
          "internalType": "bool",
          "name": "",
          "type": "bool"
        }
      ],
      "stateMutability": "nonpayable",
      "type": "function"
    },
    {
      "inputs": [
        {
          "internalType": "address",
          "name": "from",
          "type": "address"
        },
        {
          "internalType": "address",
          "name": "to",
          "type": "address"
        },
        {
          "internalType": "uint256",
          "name": "value",
          "type": "uint256"
        }
      ],
      "name": "transferFrom",
      "outputs": [
        {
          "internalType": "bool",
          "name": "",
          "type": "bool"
        }
      ],
      "stateMutability": "nonpayable",
      "type": "function"
    },
    {
      "inputs": [],
      "name": "unitDecimals",
      "outputs": [
        {
          "internalType": "uint256",
          "name": "",
          "type": "uint256"
        }
      ],
      "stateMutability": "view",
      "type": "function"
    },
    {
      "inputs": [
        {
          "internalType": "address",
          "name": "account",
          "type": "address"
        }
      ],
      "name": "unlockDate",
      "outputs": [
        {
          "internalType": "uint256",
          "name": "",
          "type": "uint256"
        }
      ],
      "stateMutability": "view",
      "type": "function"
    },
    {
      "inputs": [
        {
          "internalType": "address",
          "name": "to",
          "type": "address"
        },
        {
          "internalType": "uint256",
          "name": "amount",
          "type": "uint256"
        }
      ],
      "name": "unstake",
      "outputs": [],
      "stateMutability": "nonpayable",
      "type": "function"
    },
    {
      "inputs": [
        {
          "internalType": "address",
          "name": "memberAddr",
          "type": "address"
        },
        {
          "internalType": "uint128",
          "name": "newUnits",
          "type": "uint128"
        }
      ],
      "name": "updateMemberUnits",
      "outputs": [],
      "stateMutability": "nonpayable",
      "type": "function"
    }
  ],
  "bytecode": "0x6080806040523460d75760126003557ff0c57e16840df040f15088dc2f81fe391c3923bec73e23a9662efc9c229c6a005460ff8160401c1660c6576002600160401b03196001600160401b038216016061575b60405161276090816100dd8239f35b6001600160401b0319166001600160401b039081177ff0c57e16840df040f15088dc2f81fe391c3923bec73e23a9662efc9c229c6a005581527fc7f505b2f371ae2175ee4913f4499e1f2633a7b5936321eed1cdaeb6115181d290602090a138806052565b63f92ee8a960e01b60005260046000fd5b600080fdfe608080604052600436101561001357600080fd5b60003560e01c90816301ffc9a71461194357508063045544431461192557806305271a2a1461190757806306fdde0314611821578063095ea7b31461171d57806316f0115b146116f657806318160ddd146116b95780631b1677771461158657806323b872dd1461154e578063240be94414611514578063248a9ca3146114c85780632f2ff15d14611469578063313ce5671461144d57806336568abe146113ee57806342966c68146113d15780634437152a146112e857806349ccd69e1461128057806370a082311461122757806379cc6790146111f757806391d148541461118a57806395d89b411461106f578063987b4c3914610943578063a217fddf14610927578063a9059cbb146108f6578063adc9772e146105cf578063bdfc371e14610515578063c242652c146103f1578063c2a672e0146102c9578063d547741f14610263578063dd62ed3e146101e6578063ec87621c146101ab5763ee5361b31461017f57600080fd5b346101a65760006003193601126101a65760206001600160a01b0360005416604051908152f35b600080fd5b346101a65760006003193601126101a65760206040517f241ecf16d79d0f8dbfb92cbc07fe17840425976cf0667f022fe9877caa831b088152f35b346101a65760406003193601126101a6576101ff611a2b565b6001600160a01b0361024b610212611a41565b926001600160a01b03166000527f52c63247e1f47db19d5ce0460030c497f067ca4cebf71ba98eeadabe20bace01602052604060002090565b91166000526020526020604060002054604051908152f35b346101a65760406003193601126101a6576102c7600435610282611a41565b906102c26102bd826000527f02dd7bc7dec4dceedda775e58dd541e08a116c6c53815c0bd028192f7b62680060205260016040600020015490565b612032565b612309565b005b346101a65760406003193601126101a6576102e2611a2b565b602435906102ee612639565b6102f882336123d6565b60206001600160a01b036044816000541693600060405195869485937fa9059cbb0000000000000000000000000000000000000000000000000000000085521660048401528760248401525af180156103e5576103b8575b503360005260016020526040600020549060405191825260208201527ff279e6a1f5e320cca91135676d9cb6e44ca8a08c0b88342bcdb1144f6511b56860403392a260017f9b779b17422d0df92223018b32b4d1fa46e071723d6817e2486d003becc55f0055005b6103d99060203d6020116103de575b6103d18183611a57565b810190611b0b565b610350565b503d6103c7565b6040513d6000823e3d90fd5b346101a65760206003193601126101a6573360009081527fb7db2dd08fcb62d0c9e08c51941cae53c267786a0b75803fb7960902fc8ef97d60205260409020546004359060ff16156104e257600454811015610478576020817f3e062f634a950eae456fa5f8fb53a4f59f55039983bd73df7a34a313b75443d492600455604051908152a1005b608460405162461bcd60e51b815260206004820152604060248201527f5374616b6564546f6b656e3a206e6577206475726174696f6e206d757374206260448201527f65206c657373207468616e207468652063757272656e74206475726174696f6e6064820152fd5b7fe2517d3f0000000000000000000000000000000000000000000000000000000060005233600452600060245260446000fd5b346101a65760206003193601126101a6573360009081527f06484cc59dc38e4f67c31122333a17ca81b3ca18cdf02bfc298072fa52b0316a602052604090205460ff161561056557600435600355005b608460405162461bcd60e51b815260206004820152603d60248201527f4552433230506f6f6c4d616e616765723a206d7573742068617665206d616e6160448201527f67657220726f6c6520746f2073657420756e697420646563696d616c730000006064820152fd5b346101a65760406003193601126101a6576105e8611a2b565b602435906105f4612639565b600060206001600160a01b038254166064604051809481937f23b872dd0000000000000000000000000000000000000000000000000000000083523360048401523060248401528860448401525af180156103e5576108d9575b506001600160a01b0381169081156108aa57600354604d811161084257600a0a908115610894576001600160a01b03600254169160405190630fefbc0960e01b8252846004830152602082602481875afa9182156103e557600092610858575b506001600160801b0380918704169116016001600160801b03811161084257604051631b16777760e01b81526001600160a01b039290921660048301526001600160801b0316602482015290602090829060449082906000905af180156103e557610823575b50610740827f52c63247e1f47db19d5ce0460030c497f067ca4cebf71ba98eeadabe20bace0254611b23565b7f52c63247e1f47db19d5ce0460030c497f067ca4cebf71ba98eeadabe20bace02557f90890809c654f11d6e72a28fa60149770a0d11ec6c92319d6ceb2bb0a4ea1a1560406000938385527f52c63247e1f47db19d5ce0460030c497f067ca4cebf71ba98eeadabe20bace0060205281852081815401905583857fddf252ad1be2c89b69c2b068fc378daa952ba7f163c4a11628f55a4df523b3ef60208551858152a3838552600160205242828620558151904282526020820152a260017f9b779b17422d0df92223018b32b4d1fa46e071723d6817e2486d003becc55f005580f35b61083b9060203d6020116103de576103d18183611a57565b5082610714565b634e487b7160e01b600052601160045260246000fd5b6001600160801b03919250610885829160203d60201161088d575b61087d8183611a57565b8101906126b2565b9291506106ae565b503d610873565b634e487b7160e01b600052601260045260246000fd5b7fec442f0500000000000000000000000000000000000000000000000000000000600052600060045260246000fd5b6108f19060203d6020116103de576103d18183611a57565b61064e565b346101a65760406003193601126101a65761091c610912611a2b565b6024359033611c57565b602060405160018152f35b346101a65760006003193601126101a657602060405160008152f35b346101a65760e06003193601126101a65761095c611a2b565b60243567ffffffffffffffff81116101a65761097c903690600401611a7a565b9060443567ffffffffffffffff81116101a65761099d903690600401611a7a565b6064356001600160a01b0381168091036101a657608435926001600160a01b0384168094036101a65760c435926001600160a01b0384168094036101a6577ff0c57e16840df040f15088dc2f81fe391c3923bec73e23a9662efc9c229c6a00549560ff8760401c16159667ffffffffffffffff811680159081611067575b600114908161105d575b159081611054575b5061102a578760017fffffffffffffffffffffffffffffffffffffffffffffffff00000000000000008316177ff0c57e16840df040f15088dc2f81fe391c3923bec73e23a9662efc9c229c6a0055610fd5575b50610a896126d1565b610a916126d1565b80519067ffffffffffffffff8211610e7f578190610acf7f52c63247e1f47db19d5ce0460030c497f067ca4cebf71ba98eeadabe20bace0354611ad1565b601f8111610f46575b50602090601f8311600114610ea057600092610e95575b50506000198260011b9260031b1c1916177f52c63247e1f47db19d5ce0460030c497f067ca4cebf71ba98eeadabe20bace03555b80519067ffffffffffffffff8211610e7f57610b5f7f52c63247e1f47db19d5ce0460030c497f067ca4cebf71ba98eeadabe20bace0454611ad1565b601f8111610dfb575b50602090601f8311600114610d475760449383602097946000999794610c16948b92610d3c575b50506000198260011b9260031b1c1916177f52c63247e1f47db19d5ce0460030c497f067ca4cebf71ba98eeadabe20bace04555b610bcb6126d1565b610bd36126d1565b610bdb6126d1565b60017f9b779b17422d0df92223018b32b4d1fa46e071723d6817e2486d003becc55f0055610c076126d1565b610c10816120b1565b50612163565b5073ffffffffffffffffffffffffffffffffffffffff198654161785558273ffffffffffffffffffffffffffffffffffffffff19600254161760025560a4356004556040519485938492631b16777760e01b84526004840152600160248401525af180156103e557610d1d575b50610c8a57005b7fffffffffffffffffffffffffffffffffffffffffffffff00ffffffffffffffff7ff0c57e16840df040f15088dc2f81fe391c3923bec73e23a9662efc9c229c6a0054167ff0c57e16840df040f15088dc2f81fe391c3923bec73e23a9662efc9c229c6a00557fc7f505b2f371ae2175ee4913f4499e1f2633a7b5936321eed1cdaeb6115181d2602060405160018152a1005b610d359060203d6020116103de576103d18183611a57565b5081610c83565b015190508b80610b8f565b90601f198316917f52c63247e1f47db19d5ce0460030c497f067ca4cebf71ba98eeadabe20bace04600052816000209260005b818110610de35750846000999794610c16946044989460209b9860019510610dca575b505050811b017f52c63247e1f47db19d5ce0460030c497f067ca4cebf71ba98eeadabe20bace0455610bc3565b015160001960f88460031b161c191690558b8080610d9d565b92936020600181928786015181550195019301610d7a565b7f52c63247e1f47db19d5ce0460030c497f067ca4cebf71ba98eeadabe20bace046000527f46a2803e59a4de4e7a4c574b1243f25977ac4c77d5a1a4a609b5394cebb4a2aa601f840160051c81019160208510610e75575b601f0160051c01905b818110610e695750610b68565b60008155600101610e5c565b9091508190610e53565b634e487b7160e01b600052604160045260246000fd5b015190508880610aef565b91601f1916917f52c63247e1f47db19d5ce0460030c497f067ca4cebf71ba98eeadabe20bace03600052816000209260005b818110610f2e5750908460019594939210610f15575b505050811b017f52c63247e1f47db19d5ce0460030c497f067ca4cebf71ba98eeadabe20bace0355610b23565b015160001960f88460031b161c19169055888080610ee8565b92936020600181928786015181550195019301610ed2565b7f52c63247e1f47db19d5ce0460030c497f067ca4cebf71ba98eeadabe20bace036000529091507f2ae08a8e29253f69ac5d979a101956ab8f8d9d7ded63fa7a83b16fc47648eab0601f840160051c81019160208510610fcb575b90601f859493920160051c01905b818110610fbc5750610ad8565b60008155849350600101610faf565b9091508190610fa1565b7fffffffffffffffffffffffffffffffffffffffffffffff0000000000000000001668010000000000000001177ff0c57e16840df040f15088dc2f81fe391c3923bec73e23a9662efc9c229c6a005587610a80565b7ff92ee8a90000000000000000000000000000000000000000000000000000000060005260046000fd5b90501589610a2d565b303b159150610a25565b899150610a1b565b346101a65760006003193601126101a65760405160007f52c63247e1f47db19d5ce0460030c497f067ca4cebf71ba98eeadabe20bace04546110b081611ad1565b808452906001811690811561116657506001146110e8575b6110e4836110d881850382611a57565b604051918291826119e1565b0390f35b7f52c63247e1f47db19d5ce0460030c497f067ca4cebf71ba98eeadabe20bace0460009081527f46a2803e59a4de4e7a4c574b1243f25977ac4c77d5a1a4a609b5394cebb4a2aa939250905b80821061114c575090915081016020016110d86110c8565b919260018160209254838588010152019101909291611134565b60ff191660208086019190915291151560051b840190910191506110d890506110c8565b346101a65760406003193601126101a6576111a3611a41565b6004356000527f02dd7bc7dec4dceedda775e58dd541e08a116c6c53815c0bd028192f7b6268006020526001600160a01b0360406000209116600052602052602060ff604060002054166040519015158152f35b346101a65760406003193601126101a6576102c7611213611a2b565b60243590611222823383611b30565b6123d6565b346101a65760206003193601126101a6576001600160a01b03611248611a2b565b166000527f52c63247e1f47db19d5ce0460030c497f067ca4cebf71ba98eeadabe20bace006020526020604060002054604051908152f35b346101a65760206003193601126101a6576001600160a01b036112a1611a2b565b16806000526001602052604060002054156000146112c75750602060005b604051908152f35b600052600160205260206112e360406000205460045490611b23565b6112bf565b346101a65760206003193601126101a6576004356001600160a01b0381168091036101a6573360009081527f06484cc59dc38e4f67c31122333a17ca81b3ca18cdf02bfc298072fa52b0316a602052604090205460ff16156113675773ffffffffffffffffffffffffffffffffffffffff196002541617600255600080f35b608460405162461bcd60e51b815260206004820152603460248201527f4552433230506f6f6c4d616e616765723a206d7573742068617665206d616e6160448201527f67657220726f6c6520746f2073657420706f6f6c0000000000000000000000006064820152fd5b346101a65760206003193601126101a6576102c7600435336123d6565b346101a65760406003193601126101a657611407611a41565b336001600160a01b03821603611423576102c790600435612309565b7f6697b2320000000000000000000000000000000000000000000000000000000060005260046000fd5b346101a65760006003193601126101a657602060405160128152f35b346101a65760406003193601126101a6576102c7600435611488611a41565b906114c36102bd826000527f02dd7bc7dec4dceedda775e58dd541e08a116c6c53815c0bd028192f7b62680060205260016040600020015490565b612231565b346101a65760206003193601126101a65760206112bf6004356000527f02dd7bc7dec4dceedda775e58dd541e08a116c6c53815c0bd028192f7b62680060205260016040600020015490565b346101a65760206003193601126101a6576001600160a01b03611535611a2b565b1660005260016020526020604060002054604051908152f35b346101a65760606003193601126101a65761091c61156a611a2b565b611572611a41565b60443591611581833383611b30565b611c57565b346101a65760406003193601126101a65761159f611a2b565b602435906001600160801b03821682036101a6573360009081527f06484cc59dc38e4f67c31122333a17ca81b3ca18cdf02bfc298072fa52b0316a602052604090205460ff161561164f57600254604051631b16777760e01b81526001600160a01b0392831660048201526001600160801b0393909316602484015260209183916044918391600091165af180156103e55761163757005b6102c79060203d6020116103de576103d18183611a57565b608460405162461bcd60e51b815260206004820152603860248201527f4552433230506f6f6c4d616e616765723a206d7573742068617665206d616e6160448201527f67657220726f6c6520746f2075706461746520756e69747300000000000000006064820152fd5b346101a65760006003193601126101a65760207f52c63247e1f47db19d5ce0460030c497f067ca4cebf71ba98eeadabe20bace0254604051908152f35b346101a65760006003193601126101a65760206001600160a01b0360025416604051908152f35b346101a65760406003193601126101a657611736611a2b565b6024359033156117f2576001600160a01b03169081156117c3573360009081527f52c63247e1f47db19d5ce0460030c497f067ca4cebf71ba98eeadabe20bace016020526040902082600052602052806040600020556040519081527f8c5be1e5ebec7d5bd14f71427d1e84f3dd0314c0f7b2291e5b200ac8c7c3b92560203392a3602060405160018152f35b7f94280d6200000000000000000000000000000000000000000000000000000000600052600060045260246000fd5b7fe602df0500000000000000000000000000000000000000000000000000000000600052600060045260246000fd5b346101a65760006003193601126101a65760405160007f52c63247e1f47db19d5ce0460030c497f067ca4cebf71ba98eeadabe20bace035461186281611ad1565b80845290600181169081156111665750600114611889576110e4836110d881850382611a57565b7f52c63247e1f47db19d5ce0460030c497f067ca4cebf71ba98eeadabe20bace0360009081527f2ae08a8e29253f69ac5d979a101956ab8f8d9d7ded63fa7a83b16fc47648eab0939250905b8082106118ed575090915081016020016110d86110c8565b9192600181602092548385880101520191019092916118d5565b346101a65760006003193601126101a6576020600354604051908152f35b346101a65760006003193601126101a6576020600454604051908152f35b346101a65760206003193601126101a657600435907fffffffff0000000000000000000000000000000000000000000000000000000082168092036101a657817f7965db0b00000000000000000000000000000000000000000000000000000000602093149081156119b7575b5015158152f35b7f01ffc9a700000000000000000000000000000000000000000000000000000000915014836119b0565b9190916020815282519283602083015260005b848110611a15575050601f19601f8460006040809697860101520116010190565b80602080928401015160408286010152016119f4565b600435906001600160a01b03821682036101a657565b602435906001600160a01b03821682036101a657565b90601f601f19910116810190811067ffffffffffffffff821117610e7f57604052565b81601f820112156101a65780359067ffffffffffffffff8211610e7f5760405192611aaf6020601f19601f8601160185611a57565b828452602083830101116101a657816000926020809301838601378301015290565b90600182811c92168015611b01575b6020831014611aeb57565b634e487b7160e01b600052602260045260246000fd5b91607f1691611ae0565b908160209103126101a6575180151581036101a65790565b9190820180921161084257565b9190611b6e836001600160a01b03166000527f52c63247e1f47db19d5ce0460030c497f067ca4cebf71ba98eeadabe20bace01602052604060002090565b6001600160a01b038216600052602052604060002054926000198410611b95575b50505050565b828410611c18576001600160a01b038116156117f2576001600160a01b038216156117c357611bfe6001600160a01b03916001600160a01b03166000527f52c63247e1f47db19d5ce0460030c497f067ca4cebf71ba98eeadabe20bace01602052604060002090565b911660005260205260406000209103905538808080611b8f565b506001600160a01b0383917ffb8f41b2000000000000000000000000000000000000000000000000000000006000521660045260245260445260646000fd5b90916001600160a01b038216918215612003576001600160a01b0384169384156108aa57836000526001602052611c9660406000205460045490611b23565b421115611f9a57600354604d811161084257600a0a8015610894576001600160801b0390840416916001600160a01b036002541690604051630fefbc0960e01b8152866004820152602081602481865afa9081156103e55785916001600160801b0391600091611f7b575b501680611ed6575b505050506001600160a01b036002541691604051630fefbc0960e01b8152866004820152602081602481875afa80156103e5576001600160801b0391600091611eb7575b5016016001600160801b03811161084257604051631b16777760e01b81526001600160a01b039290921660048301526001600160801b0316602482015290602090829060449082906000905af180156103e557611e98575b5060008281527f52c63247e1f47db19d5ce0460030c497f067ca4cebf71ba98eeadabe20bace006020526040812054828110611e655791604082827fddf252ad1be2c89b69c2b068fc378daa952ba7f163c4a11628f55a4df523b3ef9587602096527f52c63247e1f47db19d5ce0460030c497f067ca4cebf71ba98eeadabe20bace00865203828220558681527f52c63247e1f47db19d5ce0460030c497f067ca4cebf71ba98eeadabe20bace00845220818154019055604051908152a3565b6064937fe450d38c0000000000000000000000000000000000000000000000000000000083949352600452602452604452fd5b611eb09060203d6020116103de576103d18183611a57565b5038611da5565b611ed0915060203d60201161088d5761087d8183611a57565b38611d4d565b81811115611f6a5703906001600160801b03821161084257611f3492602092915b6000604051809681958294631b16777760e01b8452600484019092916001600160801b036020916001600160a01b03604085019616845216910152565b03925af180156103e557611f4b575b808381611d09565b611f639060203d6020116103de576103d18183611a57565b5038611f43565b5050602090611f3492600091611ef7565b611f94915060203d60201161088d5761087d8183611a57565b38611d01565b608460405162461bcd60e51b8152602060048201526024808201527f5374616b6564546f6b656e3a20746f6b656e7320617265207374696c6c206c6f60448201527f636b6564000000000000000000000000000000000000000000000000000000006064820152fd5b7f96c6fd1e00000000000000000000000000000000000000000000000000000000600052600060045260246000fd5b806000527f02dd7bc7dec4dceedda775e58dd541e08a116c6c53815c0bd028192f7b62680060205260406000206001600160a01b03331660005260205260ff60406000205416156120805750565b7fe2517d3f000000000000000000000000000000000000000000000000000000006000523360045260245260446000fd5b6001600160a01b03811660009081527fb7db2dd08fcb62d0c9e08c51941cae53c267786a0b75803fb7960902fc8ef97d602052604090205460ff1661215d576001600160a01b031660008181527fb7db2dd08fcb62d0c9e08c51941cae53c267786a0b75803fb7960902fc8ef97d60205260408120805460ff191660011790553391907f2f8788117e7eff1d82e926ec794901d17c78024a50270940304540a733656f0d8180a4600190565b50600090565b6001600160a01b03811660009081527f06484cc59dc38e4f67c31122333a17ca81b3ca18cdf02bfc298072fa52b0316a602052604090205460ff1661215d576001600160a01b031660008181527f06484cc59dc38e4f67c31122333a17ca81b3ca18cdf02bfc298072fa52b0316a60205260408120805460ff191660011790553391907f241ecf16d79d0f8dbfb92cbc07fe17840425976cf0667f022fe9877caa831b08907f2f8788117e7eff1d82e926ec794901d17c78024a50270940304540a733656f0d9080a4600190565b806000527f02dd7bc7dec4dceedda775e58dd541e08a116c6c53815c0bd028192f7b62680060205260406000206001600160a01b03831660005260205260ff604060002054161560001461230257806000527f02dd7bc7dec4dceedda775e58dd541e08a116c6c53815c0bd028192f7b62680060205260406000206001600160a01b0383166000526020526040600020600160ff198254161790556001600160a01b03339216907f2f8788117e7eff1d82e926ec794901d17c78024a50270940304540a733656f0d600080a4600190565b5050600090565b806000527f02dd7bc7dec4dceedda775e58dd541e08a116c6c53815c0bd028192f7b62680060205260406000206001600160a01b03831660005260205260ff6040600020541660001461230257806000527f02dd7bc7dec4dceedda775e58dd541e08a116c6c53815c0bd028192f7b62680060205260406000206001600160a01b038316600052602052604060002060ff1981541690556001600160a01b03339216907ff6391f5c32d9c69d2a47ea670b442974b53935d1edc7fd64eb21e047a839171b600080a4600190565b6001600160a01b0381169081156120035781600052600160205261240260406000205460045490611b23565b421115611f9a57600354604d811161084257600a0a8015610894576001600160801b0390840416906001600160a01b036002541691604051630fefbc0960e01b8152846004820152602081602481875afa80156103e5576001600160801b039160009161261a575b50168061257f575b505050506000918183527f52c63247e1f47db19d5ce0460030c497f067ca4cebf71ba98eeadabe20bace00602052604083205481811061254d57817fddf252ad1be2c89b69c2b068fc378daa952ba7f163c4a11628f55a4df523b3ef926020928587527f52c63247e1f47db19d5ce0460030c497f067ca4cebf71ba98eeadabe20bace008452036040862055807f52c63247e1f47db19d5ce0460030c497f067ca4cebf71ba98eeadabe20bace0254037f52c63247e1f47db19d5ce0460030c497f067ca4cebf71ba98eeadabe20bace0255604051908152a3565b83927fe450d38c0000000000000000000000000000000000000000000000000000000060649552600452602452604452fd5b818111156126095703906001600160801b03821161084257604051631b16777760e01b81526001600160a01b0390911660048201526001600160801b03909116602482015290602090829081600081604481015b03925af180156103e5576125ea575b808080612472565b6126029060203d6020116103de576103d18183611a57565b50386125e2565b50506020906125d392600091611ef7565b612633915060203d60201161088d5761087d8183611a57565b3861246a565b60027f9b779b17422d0df92223018b32b4d1fa46e071723d6817e2486d003becc55f0054146126885760027f9b779b17422d0df92223018b32b4d1fa46e071723d6817e2486d003becc55f0055565b7f3ee5aeb50000000000000000000000000000000000000000000000000000000060005260046000fd5b908160209103126101a657516001600160801b03811681036101a65790565b60ff7ff0c57e16840df040f15088dc2f81fe391c3923bec73e23a9662efc9c229c6a005460401c161561270057565b7fd7e6bcf80000000000000000000000000000000000000000000000000000000060005260046000fdfea26469706673582212204100a345e249b897b8a74fd9f7143cd70476f00c54329fe481dc1e6928dbcdb364736f6c634300081a0033",
  "linkReferences": {},
  "deployedLinkReferences": {}
}