{
  "_format": "hh-sol-artifact-1",
  "contractName": "Streme",
  "sourceName": "contracts/Streme.sol",
  "abi": [
    {
      "inputs": [
        {
          "internalType": "address",
          "name": "owner_",
          "type": "address"
        }
      ],
      "stateMutability": "nonpayable",
      "type": "constructor"
    },
    {
      "inputs": [],
      "name": "AccessControlBadConfirmation",
      "type": "error"
    },
    {
      "inputs": [
        {
          "internalType": "address",
          "name": "account",
          "type": "address"
        },
        {
          "internalType": "bytes32",
          "name": "neededRole",
          "type": "bytes32"
        }
      ],
      "name": "AccessControlUnauthorizedAccount",
      "type": "error"
    },
    {
      "inputs": [],
      "name": "Deprecated",
      "type": "error"
    },
    {
      "inputs": [],
      "name": "NotRegistered",
      "type": "error"
    },
    {
      "anonymous": false,
      "inputs": [
        {
          "indexed": true,
          "internalType": "bytes32",
          "name": "role",
          "type": "bytes32"
        },
        {
          "indexed": true,
          "internalType": "bytes32",
          "name": "previousAdminRole",
          "type": "bytes32"
        },
        {
          "indexed": true,
          "internalType": "bytes32",
          "name": "newAdminRole",
          "type": "bytes32"
        }
      ],
      "name": "RoleAdminChanged",
      "type": "event"
    },
    {
      "anonymous": false,
      "inputs": [
        {
          "indexed": true,
          "internalType": "bytes32",
          "name": "role",
          "type": "bytes32"
        },
        {
          "indexed": true,
          "internalType": "address",
          "name": "account",
          "type": "address"
        },
        {
          "indexed": true,
          "internalType": "address",
          "name": "sender",
          "type": "address"
        }
      ],
      "name": "RoleGranted",
      "type": "event"
    },
    {
      "anonymous": false,
      "inputs": [
        {
          "indexed": true,
          "internalType": "bytes32",
          "name": "role",
          "type": "bytes32"
        },
        {
          "indexed": true,
          "internalType": "address",
          "name": "account",
          "type": "address"
        },
        {
          "indexed": true,
          "internalType": "address",
          "name": "sender",
          "type": "address"
        }
      ],
      "name": "RoleRevoked",
      "type": "event"
    },
    {
      "anonymous": false,
      "inputs": [
        {
          "indexed": false,
          "internalType": "address",
          "name": "tokenAddress",
          "type": "address"
        },
        {
          "indexed": false,
          "internalType": "uint256",
          "name": "positionId",
          "type": "uint256"
        },
        {
          "indexed": false,
          "internalType": "address",
          "name": "deployer",
          "type": "address"
        },
        {
          "indexed": false,
          "internalType": "uint256",
          "name": "fid",
          "type": "uint256"
        },
        {
          "indexed": false,
          "internalType": "string",
          "name": "name",
          "type": "string"
        },
        {
          "indexed": false,
          "internalType": "string",
          "name": "symbol",
          "type": "string"
        },
        {
          "indexed": false,
          "internalType": "uint256",
          "name": "supply",
          "type": "uint256"
        },
        {
          "indexed": false,
          "internalType": "string",
          "name": "castHash",
          "type": "string"
        }
      ],
      "name": "TokenCreated",
      "type": "event"
    },
    {
      "inputs": [],
      "name": "DEFAULT_ADMIN_ROLE",
      "outputs": [
        {
          "internalType": "bytes32",
          "name": "",
          "type": "bytes32"
        }
      ],
      "stateMutability": "view",
      "type": "function"
    },
    {
      "inputs": [],
      "name": "DEPLOYER_ROLE",
      "outputs": [
        {
          "internalType": "bytes32",
          "name": "",
          "type": "bytes32"
        }
      ],
      "stateMutability": "view",
      "type": "function"
    },
    {
      "inputs": [],
      "name": "MANAGER_ROLE",
      "outputs": [
        {
          "internalType": "bytes32",
          "name": "",
          "type": "bytes32"
        }
      ],
      "stateMutability": "view",
      "type": "function"
    },
    {
      "inputs": [
        {
          "internalType": "contract IStremeTokenFactory",
          "name": "tokenFactory",
          "type": "address"
        },
        {
          "internalType": "contract IStremePostDeployHook",
          "name": "postDeployHook",
          "type": "address"
        },
        {
          "internalType": "contract IStremeLiquidityFactory",
          "name": "liquidityFactory",
          "type": "address"
        },
        {
          "internalType": "contract IStremePostLPHook",
          "name": "postLPHook",
          "type": "address"
        },
        {
          "components": [
            {
              "internalType": "string",
              "name": "_name",
              "type": "string"
            },
            {
              "internalType": "string",
              "name": "_symbol",
              "type": "string"
            },
            {
              "internalType": "uint256",
              "name": "_supply",
              "type": "uint256"
            },
            {
              "internalType": "uint24",
              "name": "_fee",
              "type": "uint24"
            },
            {
              "internalType": "bytes32",
              "name": "_salt",
              "type": "bytes32"
            },
            {
              "internalType": "address",
              "name": "_deployer",
              "type": "address"
            },
            {
              "internalType": "uint256",
              "name": "_fid",
              "type": "uint256"
            },
            {
              "internalType": "string",
              "name": "_image",
              "type": "string"
            },
            {
              "internalType": "string",
              "name": "_castHash",
              "type": "string"
            },
            {
              "components": [
                {
                  "internalType": "int24",
                  "name": "tick",
                  "type": "int24"
                },
                {
                  "internalType": "address",
                  "name": "pairedToken",
                  "type": "address"
                },
                {
                  "internalType": "uint24",
                  "name": "devBuyFee",
                  "type": "uint24"
                }
              ],
              "internalType": "struct Streme.PoolConfig",
              "name": "_poolConfig",
              "type": "tuple"
            }
          ],
          "internalType": "struct Streme.PreSaleTokenConfig",
          "name": "preSaleTokenConfig",
          "type": "tuple"
        }
      ],
      "name": "deployToken",
      "outputs": [
        {
          "internalType": "address",
          "name": "token",
          "type": "address"
        },
        {
          "internalType": "uint256",
          "name": "liquidityId",
          "type": "uint256"
        }
      ],
      "stateMutability": "payable",
      "type": "function"
    },
    {
      "inputs": [],
      "name": "deprecated",
      "outputs": [
        {
          "internalType": "bool",
          "name": "",
          "type": "bool"
        }
      ],
      "stateMutability": "view",
      "type": "function"
    },
    {
      "inputs": [
        {
          "internalType": "string",
          "name": "_symbol",
          "type": "string"
        },
        {
          "internalType": "address",
          "name": "_requestor",
          "type": "address"
        },
        {
          "internalType": "address",
          "name": "_tokenFactory",
          "type": "address"
        },
        {
          "internalType": "address",
          "name": "_pairedToken",
          "type": "address"
        }
      ],
      "name": "generateSalt",
      "outputs": [
        {
          "internalType": "bytes32",
          "name": "salt",
          "type": "bytes32"
        },
        {
          "internalType": "address",
          "name": "token",
          "type": "address"
        }
      ],
      "stateMutability": "view",
      "type": "function"
    },
    {
      "inputs": [
        {
          "internalType": "bytes32",
          "name": "role",
          "type": "bytes32"
        }
      ],
      "name": "getRoleAdmin",
      "outputs": [
        {
          "internalType": "bytes32",
          "name": "",
          "type": "bytes32"
        }
      ],
      "stateMutability": "view",
      "type": "function"
    },
    {
      "inputs": [
        {
          "internalType": "bytes32",
          "name": "role",
          "type": "bytes32"
        },
        {
          "internalType": "address",
          "name": "account",
          "type": "address"
        }
      ],
      "name": "grantRole",
      "outputs": [],
      "stateMutability": "nonpayable",
      "type": "function"
    },
    {
      "inputs": [
        {
          "internalType": "bytes32",
          "name": "role",
          "type": "bytes32"
        },
        {
          "internalType": "address",
          "name": "account",
          "type": "address"
        }
      ],
      "name": "hasRole",
      "outputs": [
        {
          "internalType": "bool",
          "name": "",
          "type": "bool"
        }
      ],
      "stateMutability": "view",
      "type": "function"
    },
    {
      "inputs": [
        {
          "internalType": "address",
          "name": "",
          "type": "address"
        }
      ],
      "name": "liquidityFactories",
      "outputs": [
        {
          "internalType": "bool",
          "name": "",
          "type": "bool"
        }
      ],
      "stateMutability": "view",
      "type": "function"
    },
    {
      "inputs": [],
      "name": "owner",
      "outputs": [
        {
          "internalType": "address",
          "name": "",
          "type": "address"
        }
      ],
      "stateMutability": "view",
      "type": "function"
    },
    {
      "inputs": [
        {
          "internalType": "address",
          "name": "",
          "type": "address"
        }
      ],
      "name": "postDelpoyHooks",
      "outputs": [
        {
          "internalType": "bool",
          "name": "",
          "type": "bool"
        }
      ],
      "stateMutability": "view",
      "type": "function"
    },
    {
      "inputs": [
        {
          "internalType": "address",
          "name": "",
          "type": "address"
        }
      ],
      "name": "postLPHooks",
      "outputs": [
        {
          "internalType": "bool",
          "name": "",
          "type": "bool"
        }
      ],
      "stateMutability": "view",
      "type": "function"
    },
    {
      "inputs": [
        {
          "internalType": "string",
          "name": "_symbol",
          "type": "string"
        },
        {
          "internalType": "address",
          "name": "_requestor",
          "type": "address"
        },
        {
          "internalType": "bytes32",
          "name": "_salt",
          "type": "bytes32"
        },
        {
          "internalType": "address",
          "name": "_tokenFactory",
          "type": "address"
        }
      ],
      "name": "predictToken",
      "outputs": [
        {
          "internalType": "address",
          "name": "",
          "type": "address"
        }
      ],
      "stateMutability": "view",
      "type": "function"
    },
    {
      "inputs": [
        {
          "internalType": "address",
          "name": "factory",
          "type": "address"
        },
        {
          "internalType": "bool",
          "name": "enabled",
          "type": "bool"
        }
      ],
      "name": "registerLiquidityFactory",
      "outputs": [],
      "stateMutability": "nonpayable",
      "type": "function"
    },
    {
      "inputs": [
        {
          "internalType": "address",
          "name": "hook",
          "type": "address"
        },
        {
          "internalType": "bool",
          "name": "enabled",
          "type": "bool"
        }
      ],
      "name": "registerPostDeployHook",
      "outputs": [],
      "stateMutability": "nonpayable",
      "type": "function"
    },
    {
      "inputs": [
        {
          "internalType": "address",
          "name": "hook",
          "type": "address"
        },
        {
          "internalType": "bool",
          "name": "enabled",
          "type": "bool"
        }
      ],
      "name": "registerPostLPHook",
      "outputs": [],
      "stateMutability": "nonpayable",
      "type": "function"
    },
    {
      "inputs": [
        {
          "internalType": "address",
          "name": "factory",
          "type": "address"
        },
        {
          "internalType": "bool",
          "name": "enabled",
          "type": "bool"
        }
      ],
      "name": "registerTokenFactory",
      "outputs": [],
      "stateMutability": "nonpayable",
      "type": "function"
    },
    {
      "inputs": [
        {
          "internalType": "bytes32",
          "name": "role",
          "type": "bytes32"
        },
        {
          "internalType": "address",
          "name": "callerConfirmation",
          "type": "address"
        }
      ],
      "name": "renounceRole",
      "outputs": [],
      "stateMutability": "nonpayable",
      "type": "function"
    },
    {
      "inputs": [
        {
          "internalType": "bytes32",
          "name": "role",
          "type": "bytes32"
        },
        {
          "internalType": "address",
          "name": "account",
          "type": "address"
        }
      ],
      "name": "revokeRole",
      "outputs": [],
      "stateMutability": "nonpayable",
      "type": "function"
    },
    {
      "inputs": [
        {
          "internalType": "bool",
          "name": "_deprecated",
          "type": "bool"
        }
      ],
      "name": "setDeprecated",
      "outputs": [],
      "stateMutability": "nonpayable",
      "type": "function"
    },
    {
      "inputs": [
        {
          "internalType": "bytes4",
          "name": "interfaceId",
          "type": "bytes4"
        }
      ],
      "name": "supportsInterface",
      "outputs": [
        {
          "internalType": "bool",
          "name": "",
          "type": "bool"
        }
      ],
      "stateMutability": "view",
      "type": "function"
    },
    {
      "inputs": [
        {
          "internalType": "address",
          "name": "",
          "type": "address"
        }
      ],
      "name": "tokenFactories",
      "outputs": [
        {
          "internalType": "bool",
          "name": "",
          "type": "bool"
        }
      ],
      "stateMutability": "view",
      "type": "function"
    },
    {
      "inputs": [
        {
          "internalType": "address",
          "name": "_token",
          "type": "address"
        },
        {
          "internalType": "address",
          "name": "recipient",
          "type": "address"
        }
      ],
      "name": "withdrawERC20",
      "outputs": [],
      "stateMutability": "nonpayable",
      "type": "function"
    },
    {
      "inputs": [
        {
          "internalType": "address",
          "name": "recipient",
          "type": "address"
        }
      ],
      "name": "withdrawETH",
      "outputs": [],
      "stateMutability": "nonpayable",
      "type": "function"
    }
  ],
  "bytecode": "0x6080346100a157601f611e5d38819003918201601f19168301916001600160401b038311848410176100a6578084926020946040528339810103126100a157516001600160a01b03811681036100a157610058816100bc565b5061006281610138565b5061006c816101d0565b5060018054610100600160a81b03191660089290921b610100600160a81b0316919091179055604051611b7490816102698239f35b600080fd5b634e487b7160e01b600052604160045260246000fd5b6001600160a01b0381166000908152600080516020611e3d833981519152602052604090205460ff16610132576001600160a01b03166000818152600080516020611e3d83398151915260205260408120805460ff19166001179055339190600080516020611ddd8339815191528180a4600190565b50600090565b6001600160a01b0381166000908152600080516020611dfd833981519152602052604090205460ff16610132576001600160a01b03166000818152600080516020611dfd83398151915260205260408120805460ff191660011790553391907f241ecf16d79d0f8dbfb92cbc07fe17840425976cf0667f022fe9877caa831b0890600080516020611ddd8339815191529080a4600190565b6001600160a01b0381166000908152600080516020611e1d833981519152602052604090205460ff16610132576001600160a01b03166000818152600080516020611e1d83398151915260205260408120805460ff191660011790553391907ffc425f2263d0df187444b70e47283d622c70181c5baebb1306a01edba1ce184c90600080516020611ddd8339815191529080a460019056fe6080604052600436101561001257600080fd5b6000803560e01c8063017ea141146115ce57806301ffc9a71461152c5780630e136b1914611509578063156a42df146114cc5780631adacc061461148f578063248a9ca3146114595780632f2ff15d1461141857806332564215146113c457806336568abe146113665780634245d2b814611312578063690d8320146112c45780636dd91f2e146112875780637fefb6a8146111775780638da5cb5b1461114d57806391d14854146111065780639456fbcc14610fe3578063a217fddf14610fc7578063a673481f14610f8a578063d05db32814610f36578063d547741f14610eec578063d848dee714610eb3578063e8c59f37146101ff578063ec87621c146101c4578063ecd00261146101895763fac23c901461013057600080fd5b346101865760406003193601126101865761018361014c6117d4565b6001600160a01b0361015c6117fe565b9161016561188a565b1683526004602052604083209060ff60ff1983541691151516179055565b80f35b80fd5b503461018657806003193601126101865760206040517ffc425f2263d0df187444b70e47283d622c70181c5baebb1306a01edba1ce184c8152f35b503461018657806003193601126101865760206040517f241ecf16d79d0f8dbfb92cbc07fe17840425976cf0667f022fe9877caa831b088152f35b5060a0600319360112610186576004356001600160a01b0381168103610eaf576024356001600160a01b0381168103610a6257604435926001600160a01b038416840361018657606435906001600160a01b0382168203610186576084359167ffffffffffffffff8311610eaf5782360392610180600319850112610a625760405193610140850185811067ffffffffffffffff821117610e8257604052816004013567ffffffffffffffff8111610da0576102c1906004369185010161174c565b8552602482013567ffffffffffffffff8111610da0576102e7906004369185010161174c565b6020860152604482013560408601526103026064830161180d565b60608601526084820135608086015261031d60a483016117ea565b60a086015260c482013560c086015260e482013567ffffffffffffffff8111610da057610350906004369185010161174c565b60e086015261010482013567ffffffffffffffff8111610da05760609161039e7ffffffffffffffffffffffffffffffffffffffffffffffffffffffffffffffedc926004369187010161174c565b6101008801520112610a6257604051906060820182811067ffffffffffffffff821117610e82576040526101248101358060020b8103610da0576103fa916101649184526103ef61014482016117ea565b60208501520161180d565b60408201526101208401527ffc425f2263d0df187444b70e47283d622c70181c5baebb1306a01edba1ce184c825281602052604082206001600160a01b033316835260205260ff60408320541615610e4b5760ff60015416610e23576001600160a01b0385168252600260205260ff60408320541615610e14576001600160a01b0384161515938480610df4575b610de5576001600160a01b0387168352600460205260ff60408420541615610de5576001600160a01b0382161515908180610dc5575b610db65760409586516104d188826116fa565b600c81527f616674657220636865636b730000000000000000000000000000000000000000602082015261050490611a6c565b855197602087015160408801519960a08901516001600160a01b03169a60808a01518b519c8d9485947fab368a2a0000000000000000000000000000000000000000000000000000000086526004860160c0905260c4860161056591611831565b85810360031901602487015261057a91611831565b926044850152306064850152608484015260a483015203916001600160a01b03169181885a94602095f1978815610dac578598610d6c575b506105f28888516105c38a826116fa565b601d81527f616674657220746f6b656e20666163746f72793a20746f6b656e3d25730000006020820152611ad8565b610b2a575b5084516370a0823160e01b81523060048201526020816024816001600160a01b038b165afa908115610aed578491610af7575b5085517f095ea7b30000000000000000000000000000000000000000000000000000000081526001600160a01b0389166004820152602481019190915260208180604481010381876001600160a01b038c165af18015610aed57610ac0575b506106ee855161069a6060826116fa565b602481527f746f6b656e20617070726f76656420666f72206c69717569646974792066616360208201527f746f72790000000000000000000000000000000000000000000000000000000087820152611a6c565b610120840151966001600160a01b03602089015116906001600160a01b0362ffffff888b5160020b9b01511660208a60248b51809581936370a0823160e01b8352306004840152165afa918215610ab6579087949392918592610a78575b5089519b8c947f2e172e5f0000000000000000000000000000000000000000000000000000000086526001600160a01b038d16600487015260248601526044850152606484015260848301523060a48301528260c48301526001600160a01b0316815a9360e492602095f1968715610a6e578397610a36575b5090829186949350828061084661085a89516107e18b826116fa565b600f81527f6c69717569646974792069643d2573000000000000000000000000000000000060208201528a519283917fb60e72cc0000000000000000000000000000000000000000000000000000000060208401528c60248401526064830190611831565b8d604483015203601f1981018352826116fa565b6020815191016a636f6e736f6c652e6c6f675afa50610941575b50506001600160a01b0361093d939261091a83886109078560a07f8df367d10c042c43a79f6842addf298c4b250b4cb2145cae311c9ba110ff8e17980151166108f960c08501518551906020870151936101006040890151980151968d519b8c9b168b5260208b01528c8a015260608901526101006080890152610100880190611831565b9086820360a0880152611831565b9160c085015283820360e0850152611831565b0390a15192839283602090939291936001600160a01b0360408201951681520152565b0390f35b909192506001600160a01b0360206101208501510151166001600160a01b0360a085015116906001600160a01b0383163b15610a32579060648492875194859384927f3e288e460000000000000000000000000000000000000000000000000000000084526001600160a01b038c166004850152602484015260448301526001600160a01b033491165af18015610a285761091a61093d95947f8df367d10c042c43a79f6842addf298c4b250b4cb2145cae311c9ba110ff8e17946001600160a01b03948994610a18575b50509350509293610874565b81610a22916116fa565b38610a0c565b84513d84823e3d90fd5b8380fd5b9096506020813d602011610a66575b81610a52602093836116fa565b81010312610a62575195856107c5565b8280fd5b3d9150610a45565b85513d85823e3d90fd5b9150919293506020813d602011610aae575b81610a97602093836116fa565b81010312610aaa5751869392913861074c565b8680fd5b3d9150610a8a565b89513d89823e3d90fd5b610ae19060203d602011610ae6575b610ad981836116fa565b810190611872565b610689565b503d610acf565b86513d86823e3d90fd5b90506020813d602011610b22575b81610b12602093836116fa565b81010312610a325751602061062a565b3d9150610b05565b610b688651610b3988826116fa565b601a81527f77652068617665206120706f7374206465706c6f7920686f6f6b0000000000006020820152611a6c565b6001600160a01b03871686516370a0823160e01b8152306004820152602081602481855afa908115610d2b578691610d35575b5087517f095ea7b30000000000000000000000000000000000000000000000000000000081526001600160a01b0384166004820152602481019190915260208160448189865af18015610d2b579060209291610d10575b50610c308851610c028a826116fa565b600e81527f746f6b656e20617070726f76656400000000000000000000000000000000000084820152611a6c565b60446001600160a01b0360015460081c1691876001600160a01b038b5196879586947fe5b4abd100000000000000000000000000000000000000000000000000000000865260048601526024850152165af18015610aed578490610cd5575b610ccf91508651610ca088826116fa565b601681527f706f7374206465706c6f7920616464726573733d2573000000000000000000006020820152611ad8565b386105f7565b506020813d602011610d08575b81610cef602093836116fa565b81010312610a3257610d03610ccf9161181d565b610c8f565b3d9150610ce2565b610d2690833d8511610ae657610ad981836116fa565b610bf2565b88513d88823e3d90fd5b90506020813d602011610d64575b81610d50602093836116fa565b81010312610d6057516020610b9b565b8580fd5b3d9150610d43565b9097506020813d602011610da4575b81610d88602093836116fa565b81010312610da057610d999061181d565b96386105b2565b8480fd5b3d9150610d7b565b87513d87823e3d90fd5b60048463aba4733960e01b8152fd5b506001600160a01b0383168452600560205260ff604085205416156104be565b60048363aba4733960e01b8152fd5b506001600160a01b0381168352600360205260ff60408420541615610488565b60048263aba4733960e01b8152fd5b6004827fc73b9d7c000000000000000000000000000000000000000000000000000000008152fd5b60448263e2517d3f60e01b8152336004527ffc425f2263d0df187444b70e47283d622c70181c5baebb1306a01edba1ce184c602452fd5b6024857f4e487b710000000000000000000000000000000000000000000000000000000081526041600452fd5b5080fd5b503461018657602060031936011261018657600435801515809103610eaf57610eda61188a565b60ff60ff196001541691161760015580f35b503461018657604060031936011261018657610f32600435610f0c6117a8565b90610f2d610f2882600052600060205260016040600020015490565b6118fc565b6119dd565b5080f35b503461018657604060031936011261018657610183610f536117d4565b6001600160a01b03610f636117fe565b91610f6c61188a565b1683526003602052604083209060ff60ff1983541691151516179055565b50346101865760206003193601126101865760ff60406020926001600160a01b03610fb36117d4565b168152600584522054166040519015158152f35b5034610186578060031936011261018657602090604051908152f35b503461018657604060031936011261018657610ffd6117d4565b6001600160a01b0361100d6117a8565b9161101661188a565b1690604051906370a0823160e01b8252306004830152602082602481865afa9182156110fb5784926110c5575b506040517fa9059cbb0000000000000000000000000000000000000000000000000000000081526001600160a01b0390911660048201526024810191909152906020908290818581604481015b03925af180156110ba576110a2575080f35b610f329060203d602011610ae657610ad981836116fa565b6040513d84823e3d90fd5b91506020823d6020116110f3575b816110e0602093836116fa565b81010312610a3257905190611090611043565b3d91506110d3565b6040513d86823e3d90fd5b50346101865760406003193601126101865760ff60406020926111276117a8565b60043582528185526001600160a01b038383209116825284522054166040519015158152f35b503461018657806003193601126101865760206001600160a01b0360015460081c16604051908152f35b50346101865760806003193601126101865760043567ffffffffffffffff8111610eaf576111a990369060040161174c565b9060206001600160a01b036111bc6117a8565b93611209826111c96117be565b1691604051968794859384937f11a35423000000000000000000000000000000000000000000000000000000008552606060048601526064850190611831565b91166024830152604435604483015203915afa90811561127b57809161123e575b6020826001600160a01b0360405191168152f35b90506020823d602011611273575b81611259602093836116fa565b81010312610186575061126d60209161181d565b3861122a565b3d915061124c565b604051903d90823e3d90fd5b50346101865760206003193601126101865760ff60406020926001600160a01b036112b06117d4565b168152600284522054166040519015158152f35b503461018657602060031936011261018657808080806112e26117d4565b6112ea61188a565b479082908215611308575b6001600160a01b031690f11561127b5780f35b6108fc91506112f5565b50346101865760406003193601126101865761018361132f6117d4565b6001600160a01b0361133f6117fe565b9161134861188a565b1683526002602052604083209060ff60ff1983541691151516179055565b5034610186576040600319360112610186576113806117a8565b336001600160a01b0382160361139c57610f32906004356119dd565b6004827f6697b232000000000000000000000000000000000000000000000000000000008152fd5b5034610186576040600319360112610186576101836113e16117d4565b6001600160a01b036113f16117fe565b916113fa61188a565b1683526005602052604083209060ff60ff1983541691151516179055565b503461018657604060031936011261018657610f326004356114386117a8565b90611454610f2882600052600060205260016040600020015490565b611943565b5034610186576020600319360112610186576020611487600435600052600060205260016040600020015490565b604051908152f35b50346101865760206003193601126101865760ff60406020926001600160a01b036114b86117d4565b168152600384522054166040519015158152f35b50346101865760206003193601126101865760ff60406020926001600160a01b036114f56117d4565b168152600484522054166040519015158152f35b5034610186578060031936011261018657602060ff600154166040519015158152f35b5034610186576020600319360112610186576004357fffffffff000000000000000000000000000000000000000000000000000000008116809103610eaf57807f7965db0b00000000000000000000000000000000000000000000000000000000602092149081156115a4575b506040519015158152f35b7f01ffc9a70000000000000000000000000000000000000000000000000000000091501482611599565b50346101865760806003193601126101865760043567ffffffffffffffff8111610eaf5761160090369060040161174c565b6116086117a8565b90604435906001600160a01b038216809203610a32576040916116746001600160a01b03926116356117be565b95848651978896879586957ff030aa37000000000000000000000000000000000000000000000000000000008752606060048801526064870190611831565b9316602485015216604483015203915afa91821561127b57809181936116ad575b604080518481526001600160a01b0386166020820152f35b915091506040813d6040116116f2575b816116ca604093836116fa565b81010312610eaf57604091506001600160a01b036116ec60208351930161181d565b92611695565b3d91506116bd565b90601f601f19910116810190811067ffffffffffffffff82111761171d57604052565b7f4e487b7100000000000000000000000000000000000000000000000000000000600052604160045260246000fd5b81601f820112156117a35780359067ffffffffffffffff821161171d5760405192611781601f8401601f1916602001856116fa565b828452602083830101116117a357816000926020809301838601378301015290565b600080fd5b602435906001600160a01b03821682036117a357565b606435906001600160a01b03821682036117a357565b600435906001600160a01b03821682036117a357565b35906001600160a01b03821682036117a357565b6024359081151582036117a357565b359062ffffff821682036117a357565b51906001600160a01b03821682036117a357565b919082519283825260005b84811061185d575050601f19601f8460006020809697860101520116010190565b8060208092840101518282860101520161183c565b908160209103126117a3575180151581036117a35790565b3360009081527fe84508f2c7fa9c351146748b3025cb78b45df37d868e48c6a75102fecdeee645602052604090205460ff16156118c357565b63e2517d3f60e01b600052336004527f241ecf16d79d0f8dbfb92cbc07fe17840425976cf0667f022fe9877caa831b0860245260446000fd5b80600052600060205260406000206001600160a01b03331660005260205260ff604060002054161561192b5750565b63e2517d3f60e01b6000523360045260245260446000fd5b80600052600060205260406000206001600160a01b03831660005260205260ff60406000205416156000146119d65780600052600060205260406000206001600160a01b0383166000526020526040600020600160ff198254161790556001600160a01b03339216907f2f8788117e7eff1d82e926ec794901d17c78024a50270940304540a733656f0d600080a4600190565b5050600090565b80600052600060205260406000206001600160a01b03831660005260205260ff604060002054166000146119d65780600052600060205260406000206001600160a01b038316600052602052604060002060ff1981541690556001600160a01b03339216907ff6391f5c32d9c69d2a47ea670b442974b53935d1edc7fd64eb21e047a839171b600080a4600190565b6000611ab3611ac182936040519283917f41304fac000000000000000000000000000000000000000000000000000000006020840152602060248401526044830190611831565b03601f1981018352826116fa565b6020815191016a636f6e736f6c652e6c6f675afa50565b611b29611ac16000939284936001600160a01b036040519485937f319af333000000000000000000000000000000000000000000000000000000006020860152604060248601526064850190611831565b9116604483015203601f1981018352826116fa56fea2646970667358221220eea5cfa4bb42bcdeaab2d02a9a4bc4f47c14e4f41b1920a24f3be4775bba7e7364736f6c634300081a00332f8788117e7eff1d82e926ec794901d17c78024a50270940304540a733656f0de84508f2c7fa9c351146748b3025cb78b45df37d868e48c6a75102fecdeee645740c5e3e456bed56f053f960110118ba9b95a1f5359a82283516fb2e81b6e37ead3228b676f7d3cd4284a5443f17f1962b36e491b30a40b2405849e597ba5fb5",
  "linkReferences": {},
  "deployedLinkReferences": {}
}