{
  "_format": "hh-sol-artifact-1",
  "contractName": "SuperTokenFactory",
  "sourceName": "contracts/token/superfluid/SuperTokenFactory.sol",
  "abi": [
    {
      "inputs": [
        {
          "internalType": "address",
          "name": "_implementation",
          "type": "address"
        },
        {
          "internalType": "address",
          "name": "_protocolFactory",
          "type": "address"
        }
      ],
      "stateMutability": "nonpayable",
      "type": "constructor"
    },
    {
      "inputs": [],
      "name": "AccessControlBadConfirmation",
      "type": "error"
    },
    {
      "inputs": [
        {
          "internalType": "address",
          "name": "account",
          "type": "address"
        },
        {
          "internalType": "bytes32",
          "name": "neededRole",
          "type": "bytes32"
        }
      ],
      "name": "AccessControlUnauthorizedAccount",
      "type": "error"
    },
    {
      "inputs": [],
      "name": "FailedDeployment",
      "type": "error"
    },
    {
      "inputs": [
        {
          "internalType": "uint256",
          "name": "balance",
          "type": "uint256"
        },
        {
          "internalType": "uint256",
          "name": "needed",
          "type": "uint256"
        }
      ],
      "name": "InsufficientBalance",
      "type": "error"
    },
    {
      "anonymous": false,
      "inputs": [
        {
          "indexed": true,
          "internalType": "bytes32",
          "name": "role",
          "type": "bytes32"
        },
        {
          "indexed": true,
          "internalType": "bytes32",
          "name": "previousAdminRole",
          "type": "bytes32"
        },
        {
          "indexed": true,
          "internalType": "bytes32",
          "name": "newAdminRole",
          "type": "bytes32"
        }
      ],
      "name": "RoleAdminChanged",
      "type": "event"
    },
    {
      "anonymous": false,
      "inputs": [
        {
          "indexed": true,
          "internalType": "bytes32",
          "name": "role",
          "type": "bytes32"
        },
        {
          "indexed": true,
          "internalType": "address",
          "name": "account",
          "type": "address"
        },
        {
          "indexed": true,
          "internalType": "address",
          "name": "sender",
          "type": "address"
        }
      ],
      "name": "RoleGranted",
      "type": "event"
    },
    {
      "anonymous": false,
      "inputs": [
        {
          "indexed": true,
          "internalType": "bytes32",
          "name": "role",
          "type": "bytes32"
        },
        {
          "indexed": true,
          "internalType": "address",
          "name": "account",
          "type": "address"
        },
        {
          "indexed": true,
          "internalType": "address",
          "name": "sender",
          "type": "address"
        }
      ],
      "name": "RoleRevoked",
      "type": "event"
    },
    {
      "anonymous": false,
      "inputs": [
        {
          "indexed": false,
          "internalType": "address",
          "name": "superToken",
          "type": "address"
        }
      ],
      "name": "SuperTokenCreated",
      "type": "event"
    },
    {
      "inputs": [],
      "name": "DEFAULT_ADMIN_ROLE",
      "outputs": [
        {
          "internalType": "bytes32",
          "name": "",
          "type": "bytes32"
        }
      ],
      "stateMutability": "view",
      "type": "function"
    },
    {
      "inputs": [],
      "name": "DEPLOYER_ROLE",
      "outputs": [
        {
          "internalType": "bytes32",
          "name": "",
          "type": "bytes32"
        }
      ],
      "stateMutability": "view",
      "type": "function"
    },
    {
      "inputs": [
        {
          "internalType": "string",
          "name": "_name",
          "type": "string"
        },
        {
          "internalType": "string",
          "name": "_symbol",
          "type": "string"
        },
        {
          "internalType": "uint256",
          "name": "_supply",
          "type": "uint256"
        },
        {
          "internalType": "address",
          "name": "_recipient",
          "type": "address"
        },
        {
          "internalType": "address",
          "name": "_requestor",
          "type": "address"
        },
        {
          "internalType": "bytes32",
          "name": "_salt",
          "type": "bytes32"
        }
      ],
      "name": "deployToken",
      "outputs": [
        {
          "internalType": "address",
          "name": "",
          "type": "address"
        }
      ],
      "stateMutability": "nonpayable",
      "type": "function"
    },
    {
      "inputs": [
        {
          "internalType": "string",
          "name": "_symbol",
          "type": "string"
        },
        {
          "internalType": "address",
          "name": "_requestor",
          "type": "address"
        },
        {
          "internalType": "address",
          "name": "pairedToken",
          "type": "address"
        }
      ],
      "name": "generateSalt",
      "outputs": [
        {
          "internalType": "bytes32",
          "name": "salt",
          "type": "bytes32"
        },
        {
          "internalType": "address",
          "name": "token",
          "type": "address"
        }
      ],
      "stateMutability": "view",
      "type": "function"
    },
    {
      "inputs": [
        {
          "internalType": "bytes32",
          "name": "role",
          "type": "bytes32"
        }
      ],
      "name": "getRoleAdmin",
      "outputs": [
        {
          "internalType": "bytes32",
          "name": "",
          "type": "bytes32"
        }
      ],
      "stateMutability": "view",
      "type": "function"
    },
    {
      "inputs": [
        {
          "internalType": "bytes32",
          "name": "role",
          "type": "bytes32"
        },
        {
          "internalType": "address",
          "name": "account",
          "type": "address"
        }
      ],
      "name": "grantRole",
      "outputs": [],
      "stateMutability": "nonpayable",
      "type": "function"
    },
    {
      "inputs": [
        {
          "internalType": "bytes32",
          "name": "role",
          "type": "bytes32"
        },
        {
          "internalType": "address",
          "name": "account",
          "type": "address"
        }
      ],
      "name": "hasRole",
      "outputs": [
        {
          "internalType": "bool",
          "name": "",
          "type": "bool"
        }
      ],
      "stateMutability": "view",
      "type": "function"
    },
    {
      "inputs": [],
      "name": "implementation",
      "outputs": [
        {
          "internalType": "address",
          "name": "",
          "type": "address"
        }
      ],
      "stateMutability": "view",
      "type": "function"
    },
    {
      "inputs": [
        {
          "internalType": "string",
          "name": "_symbol",
          "type": "string"
        },
        {
          "internalType": "address",
          "name": "_requestor",
          "type": "address"
        },
        {
          "internalType": "bytes32",
          "name": "_salt",
          "type": "bytes32"
        }
      ],
      "name": "predictToken",
      "outputs": [
        {
          "internalType": "address",
          "name": "",
          "type": "address"
        }
      ],
      "stateMutability": "view",
      "type": "function"
    },
    {
      "inputs": [],
      "name": "protocolFactory",
      "outputs": [
        {
          "internalType": "address",
          "name": "",
          "type": "address"
        }
      ],
      "stateMutability": "view",
      "type": "function"
    },
    {
      "inputs": [
        {
          "internalType": "bytes32",
          "name": "role",
          "type": "bytes32"
        },
        {
          "internalType": "address",
          "name": "callerConfirmation",
          "type": "address"
        }
      ],
      "name": "renounceRole",
      "outputs": [],
      "stateMutability": "nonpayable",
      "type": "function"
    },
    {
      "inputs": [
        {
          "internalType": "bytes32",
          "name": "role",
          "type": "bytes32"
        },
        {
          "internalType": "address",
          "name": "account",
          "type": "address"
        }
      ],
      "name": "revokeRole",
      "outputs": [],
      "stateMutability": "nonpayable",
      "type": "function"
    },
    {
      "inputs": [
        {
          "internalType": "address",
          "name": "_implementation",
          "type": "address"
        }
      ],
      "name": "setImplementation",
      "outputs": [],
      "stateMutability": "nonpayable",
      "type": "function"
    },
    {
      "inputs": [
        {
          "internalType": "bytes4",
          "name": "interfaceId",
          "type": "bytes4"
        }
      ],
      "name": "supportsInterface",
      "outputs": [
        {
          "internalType": "bool",
          "name": "",
          "type": "bool"
        }
      ],
      "stateMutability": "view",
      "type": "function"
    },
    {
      "inputs": [],
      "name": "weth",
      "outputs": [
        {
          "internalType": "address",
          "name": "",
          "type": "address"
        }
      ],
      "stateMutability": "view",
      "type": "function"
    }
  ],
  "bytecode": "0x6080346100c057601f610de438819003918201601f19168301916001600160401b038311848410176100c55780849260409485528339810103126100c057610052602061004b836100db565b92016100db565b600380547342000000000000000000000000000000000000066001600160a01b031991821617909155600180546001600160a01b03948516908316179055600280549290931691161790556100a6336100ef565b506100b03361016b565b50604051610b8090816102048239f35b600080fd5b634e487b7160e01b600052604160045260246000fd5b51906001600160a01b03821682036100c057565b6001600160a01b0381166000908152600080516020610dc4833981519152602052604090205460ff16610165576001600160a01b03166000818152600080516020610dc483398151915260205260408120805460ff19166001179055339190600080516020610d848339815191528180a4600190565b50600090565b6001600160a01b0381166000908152600080516020610da4833981519152602052604090205460ff16610165576001600160a01b03166000818152600080516020610da483398151915260205260408120805460ff191660011790553391907ffc425f2263d0df187444b70e47283d622c70181c5baebb1306a01edba1ce184c90600080516020610d848339815191529080a460019056fe608080604052600436101561001357600080fd5b600090813560e01c90816301ffc9a7146107885750806311a354231461072f578063248a9ca3146106f95780632f2ff15d146106b857806336568abe1461065a5780633fc8cef3146106335780635c60da1b1461060c57806391d14854146105c5578063a217fddf146105a9578063ab368a2a146102f3578063d547741f146102a9578063d784d42614610217578063ecd00261146101dc578063f030aa37146100ef5763f489048a146100c657600080fd5b346100ec57806003193601126100ec5760206001600160a01b0360025416604051908152f35b80fd5b50346100ec5760606003193601126100ec5760043567ffffffffffffffff81116101d85761012190369060040161087a565b9061012a6108d6565b916044356001600160a01b0381168091036101d457825b8061014d828786610958565b836001600160a01b038216106101bb5750507fffffffffffffffffffffffffffffffffffffffffffffffffffffffffffffffff811461018e57600101610141565b6024847f4e487b710000000000000000000000000000000000000000000000000000000081526011600452fd5b906001600160a01b036040928351928352166020820152f35b8280fd5b5080fd5b50346100ec57806003193601126100ec5760206040517ffc425f2263d0df187444b70e47283d622c70181c5baebb1306a01edba1ce184c8152f35b50346100ec5760206003193601126100ec576004356001600160a01b0381168091036101d85781805281602052604082206001600160a01b03331660005260205260ff6040600020541615610292577fffffffffffffffffffffffff0000000000000000000000000000000000000000600154161760015580f35b60448263e2517d3f60e01b81523360045280602452fd5b50346100ec5760406003193601126100ec576102ef6004356102c96108d6565b906102ea6102e582600052600060205260016040600020015490565b6109da565b610abb565b5080f35b50346100ec5760c06003193601126100ec5760043567ffffffffffffffff81116101d85761032590369060040161087a565b60243567ffffffffffffffff81116101d45761034590369060040161087a565b90606435916001600160a01b0383168093036105a5576084356001600160a01b03811681036105a1577ffc425f2263d0df187444b70e47283d622c70181c5baebb1306a01edba1ce184c855284602052604085206001600160a01b033316865260205260ff6040862054161561056a576001600160a01b03906040516103e6816103d860208201948760a435918761092d565b03601f198101835282610828565b5190206e5af43d82803e903d91602b57fd5bf37fffffffffffffffffffffffffffffffffff000000000000000000000000000000600154763d602d80600a3d3981f3363d3d373d3d3d363d7300000062ffffff8260881c1617895260781b16176020526037600987f516928315610542577fb52c6d9d122e8c07769b96d7bb14e66db58ee03fdebaaa2f92547e9c7ef0e65f6020604051868152a16001600160a01b036002541691843b1561053e57918593916104f46104e2979460405198899586957f75b30be6000000000000000000000000000000000000000000000000000000008752600487015260a0602487015260a48601906108ec565b906003198583030160448601526108ec565b9060648301526044356084830152038183865af192831561053157602093610521575b5050604051908152f35b8161052b91610828565b38610517565b50604051903d90823e3d90fd5b8580fd5b6004857fb06ebf3d000000000000000000000000000000000000000000000000000000008152fd5b60448563e2517d3f60e01b8152336004527ffc425f2263d0df187444b70e47283d622c70181c5baebb1306a01edba1ce184c602452fd5b8480fd5b8380fd5b50346100ec57806003193601126100ec57602090604051908152f35b50346100ec5760406003193601126100ec5760ff60406020926105e66108d6565b60043582528185526001600160a01b038383209116825284522054166040519015158152f35b50346100ec57806003193601126100ec5760206001600160a01b0360015416604051908152f35b50346100ec57806003193601126100ec5760206001600160a01b0360035416604051908152f35b50346100ec5760406003193601126100ec576106746108d6565b336001600160a01b03821603610690576102ef90600435610abb565b6004827f6697b232000000000000000000000000000000000000000000000000000000008152fd5b50346100ec5760406003193601126100ec576102ef6004356106d86108d6565b906106f46102e582600052600060205260016040600020015490565b610a21565b50346100ec5760206003193601126100ec576020610727600435600052600060205260016040600020015490565b604051908152f35b50346100ec5760606003193601126100ec576004359067ffffffffffffffff82116100ec576020610777610766366004860161087a565b61076e6108d6565b60443591610958565b6001600160a01b0360405191168152f35b9050346101d85760206003193601126101d8576004357fffffffff0000000000000000000000000000000000000000000000000000000081168091036101d457602092507f7965db0b0000000000000000000000000000000000000000000000000000000081149081156107fe575b5015158152f35b7f01ffc9a700000000000000000000000000000000000000000000000000000000915014386107f7565b90601f601f19910116810190811067ffffffffffffffff82111761084b57604052565b7f4e487b7100000000000000000000000000000000000000000000000000000000600052604160045260246000fd5b81601f820112156108d15780359067ffffffffffffffff821161084b57604051926108af6020601f19601f8601160185610828565b828452602083830101116108d157816000926020809301838601378301015290565b600080fd5b602435906001600160a01b03821682036108d157565b919082519283825260005b848110610918575050601f19601f8460006020809697860101520116010190565b806020809284010151828286010152016108f7565b939291610953906001600160a01b036040931686526060602087015260608601906108ec565b930152565b6055916001600160a01b039361097e6043936103d860405193849260208401968761092d565b519020836001541690604051913060388401526f5af43d82803e903d91602b57fd5bf3ff60248401526014830152733d602d80600a3d3981f3363d3d373d3d3d363d73825260588201526037600c820120607882015201201690565b80600052600060205260406000206001600160a01b03331660005260205260ff6040600020541615610a095750565b63e2517d3f60e01b6000523360045260245260446000fd5b80600052600060205260406000206001600160a01b03831660005260205260ff6040600020541615600014610ab45780600052600060205260406000206001600160a01b0383166000526020526040600020600160ff198254161790556001600160a01b03339216907f2f8788117e7eff1d82e926ec794901d17c78024a50270940304540a733656f0d600080a4600190565b5050600090565b80600052600060205260406000206001600160a01b03831660005260205260ff60406000205416600014610ab45780600052600060205260406000206001600160a01b038316600052602052604060002060ff1981541690556001600160a01b03339216907ff6391f5c32d9c69d2a47ea670b442974b53935d1edc7fd64eb21e047a839171b600080a460019056fea2646970667358221220df596dac988444338e6635c2dc794309d474946fbe4db32f58008bef04af623b64736f6c634300081a00332f8788117e7eff1d82e926ec794901d17c78024a50270940304540a733656f0d740c5e3e456bed56f053f960110118ba9b95a1f5359a82283516fb2e81b6e37ead3228b676f7d3cd4284a5443f17f1962b36e491b30a40b2405849e597ba5fb5",
  "linkReferences": {},
  "deployedLinkReferences": {}
}